{
  "_format": "hh-sol-artifact-1",
  "contractName": "RebateTreasury",
  "sourceName": "contracts/RebateTreasury.sol",
  "abi": [
    {
      "inputs": [
        {
          "internalType": "address",
          "name": "tomb",
          "type": "address"
        },
        {
          "internalType": "address",
          "name": "tombOracle",
          "type": "address"
        },
        {
          "internalType": "address",
          "name": "treasury",
          "type": "address"
        }
      ],
      "stateMutability": "nonpayable",
      "type": "constructor"
    },
    {
      "anonymous": false,
      "inputs": [
        {
          "indexed": true,
          "internalType": "address",
          "name": "previousOwner",
          "type": "address"
        },
        {
          "indexed": true,
          "internalType": "address",
          "name": "newOwner",
          "type": "address"
        }
      ],
      "name": "OwnershipTransferred",
      "type": "event"
    },
    {
      "inputs": [],
      "name": "DENOMINATOR",
      "outputs": [
        {
          "internalType": "uint256",
          "name": "",
          "type": "uint256"
        }
      ],
      "stateMutability": "view",
      "type": "function"
    },
    {
      "inputs": [],
      "name": "Tomb",
      "outputs": [
        {
          "internalType": "contract IERC20",
          "name": "",
          "type": "address"
        }
      ],
      "stateMutability": "view",
      "type": "function"
    },
    {
      "inputs": [],
      "name": "TombOracle",
      "outputs": [
        {
          "internalType": "contract IOracle",
          "name": "",
          "type": "address"
        }
      ],
      "stateMutability": "view",
      "type": "function"
    },
    {
      "inputs": [],
      "name": "Treasury",
      "outputs": [
        {
          "internalType": "contract ITreasury",
          "name": "",
          "type": "address"
        }
      ],
      "stateMutability": "view",
      "type": "function"
    },
    {
      "inputs": [],
      "name": "WFTM",
      "outputs": [
        {
          "internalType": "address",
          "name": "",
          "type": "address"
        }
      ],
      "stateMutability": "view",
      "type": "function"
    },
    {
      "inputs": [
        {
          "internalType": "address",
          "name": "",
          "type": "address"
        }
      ],
      "name": "assets",
      "outputs": [
        {
          "internalType": "bool",
          "name": "isAdded",
          "type": "bool"
        },
        {
          "internalType": "uint256",
          "name": "multiplier",
          "type": "uint256"
        },
        {
          "internalType": "address",
          "name": "oracle",
          "type": "address"
        },
        {
          "internalType": "bool",
          "name": "isLP",
          "type": "bool"
        },
        {
          "internalType": "address",
          "name": "pair",
          "type": "address"
        }
      ],
      "stateMutability": "view",
      "type": "function"
    },
    {
      "inputs": [
        {
          "internalType": "address",
          "name": "token",
          "type": "address"
        },
        {
          "internalType": "uint256",
          "name": "amount",
          "type": "uint256"
        }
      ],
      "name": "bond",
      "outputs": [],
      "stateMutability": "nonpayable",
      "type": "function"
    },
    {
      "inputs": [],
      "name": "bondFactor",
      "outputs": [
        {
          "internalType": "uint256",
          "name": "",
          "type": "uint256"
        }
      ],
      "stateMutability": "view",
      "type": "function"
    },
    {
      "inputs": [],
      "name": "bondThreshold",
      "outputs": [
        {
          "internalType": "uint256",
          "name": "",
          "type": "uint256"
        }
      ],
      "stateMutability": "view",
      "type": "function"
    },
    {
      "inputs": [],
      "name": "bondVesting",
      "outputs": [
        {
          "internalType": "uint256",
          "name": "",
          "type": "uint256"
        }
      ],
      "stateMutability": "view",
      "type": "function"
    },
    {
      "inputs": [],
      "name": "buybackAmount",
      "outputs": [
        {
          "internalType": "uint256",
          "name": "",
          "type": "uint256"
        }
      ],
      "stateMutability": "view",
      "type": "function"
    },
    {
      "inputs": [],
      "name": "claimRewards",
      "outputs": [],
      "stateMutability": "nonpayable",
      "type": "function"
    },
    {
      "inputs": [
        {
          "internalType": "address",
          "name": "account",
          "type": "address"
        }
      ],
      "name": "claimableTomb",
      "outputs": [
        {
          "internalType": "uint256",
          "name": "",
          "type": "uint256"
        }
      ],
      "stateMutability": "view",
      "type": "function"
    },
    {
      "inputs": [],
      "name": "getBondPremium",
      "outputs": [
        {
          "internalType": "uint256",
          "name": "",
          "type": "uint256"
        }
      ],
      "stateMutability": "view",
      "type": "function"
    },
    {
      "inputs": [
        {
          "internalType": "address",
          "name": "token",
          "type": "address"
        }
      ],
      "name": "getTokenPrice",
      "outputs": [
        {
          "internalType": "uint256",
          "name": "",
          "type": "uint256"
        }
      ],
      "stateMutability": "view",
      "type": "function"
    },
    {
      "inputs": [],
      "name": "getTombPrice",
      "outputs": [
        {
          "internalType": "uint256",
          "name": "",
          "type": "uint256"
        }
      ],
      "stateMutability": "view",
      "type": "function"
    },
    {
      "inputs": [
        {
          "internalType": "address",
          "name": "token",
          "type": "address"
        },
        {
          "internalType": "uint256",
          "name": "amount",
          "type": "uint256"
        }
      ],
      "name": "getTombReturn",
      "outputs": [
        {
          "internalType": "uint256",
          "name": "",
          "type": "uint256"
        }
      ],
      "stateMutability": "view",
      "type": "function"
    },
    {
      "inputs": [],
      "name": "lastBuyback",
      "outputs": [
        {
          "internalType": "uint256",
          "name": "",
          "type": "uint256"
        }
      ],
      "stateMutability": "view",
      "type": "function"
    },
    {
      "inputs": [],
      "name": "owner",
      "outputs": [
        {
          "internalType": "address",
          "name": "",
          "type": "address"
        }
      ],
      "stateMutability": "view",
      "type": "function"
    },
    {
      "inputs": [
        {
          "internalType": "address[]",
          "name": "tokens",
          "type": "address[]"
        }
      ],
      "name": "redeemAssetsForBuyback",
      "outputs": [],
      "stateMutability": "nonpayable",
      "type": "function"
    },
    {
      "inputs": [],
      "name": "renounceOwnership",
      "outputs": [],
      "stateMutability": "nonpayable",
      "type": "function"
    },
    {
      "inputs": [],
      "name": "secondaryFactor",
      "outputs": [
        {
          "internalType": "uint256",
          "name": "",
          "type": "uint256"
        }
      ],
      "stateMutability": "view",
      "type": "function"
    },
    {
      "inputs": [],
      "name": "secondaryThreshold",
      "outputs": [
        {
          "internalType": "uint256",
          "name": "",
          "type": "uint256"
        }
      ],
      "stateMutability": "view",
      "type": "function"
    },
    {
      "inputs": [
        {
          "internalType": "address",
          "name": "token",
          "type": "address"
        },
        {
          "internalType": "bool",
          "name": "isAdded",
          "type": "bool"
        },
        {
          "internalType": "uint256",
          "name": "multiplier",
          "type": "uint256"
        },
        {
          "internalType": "address",
          "name": "oracle",
          "type": "address"
        },
        {
          "internalType": "bool",
          "name": "isLP",
          "type": "bool"
        },
        {
          "internalType": "address",
          "name": "pair",
          "type": "address"
        }
      ],
      "name": "setAsset",
      "outputs": [],
      "stateMutability": "nonpayable",
      "type": "function"
    },
    {
      "inputs": [
        {
          "internalType": "uint256",
          "name": "primaryThreshold",
          "type": "uint256"
        },
        {
          "internalType": "uint256",
          "name": "primaryFactor",
          "type": "uint256"
        },
        {
          "internalType": "uint256",
          "name": "secondThreshold",
          "type": "uint256"
        },
        {
          "internalType": "uint256",
          "name": "secondFactor",
          "type": "uint256"
        },
        {
          "internalType": "uint256",
          "name": "vestingPeriod",
          "type": "uint256"
        }
      ],
      "name": "setBondParameters",
      "outputs": [],
      "stateMutability": "nonpayable",
      "type": "function"
    },
    {
      "inputs": [
        {
          "internalType": "address",
          "name": "tomb",
          "type": "address"
        }
      ],
      "name": "setTomb",
      "outputs": [],
      "stateMutability": "nonpayable",
      "type": "function"
    },
    {
      "inputs": [
        {
          "internalType": "address",
          "name": "oracle",
          "type": "address"
        }
      ],
      "name": "setTombOracle",
      "outputs": [],
      "stateMutability": "nonpayable",
      "type": "function"
    },
    {
      "inputs": [
        {
          "internalType": "address",
          "name": "treasury",
          "type": "address"
        }
      ],
      "name": "setTreasury",
      "outputs": [],
      "stateMutability": "nonpayable",
      "type": "function"
    },
    {
      "inputs": [],
      "name": "totalVested",
      "outputs": [
        {
          "internalType": "uint256",
          "name": "",
          "type": "uint256"
        }
      ],
      "stateMutability": "view",
      "type": "function"
    },
    {
      "inputs": [
        {
          "internalType": "address",
          "name": "newOwner",
          "type": "address"
        }
      ],
      "name": "transferOwnership",
      "outputs": [],
      "stateMutability": "nonpayable",
      "type": "function"
    },
    {
      "inputs": [
        {
          "internalType": "address",
          "name": "",
          "type": "address"
        }
      ],
      "name": "vesting",
      "outputs": [
        {
          "internalType": "uint256",
          "name": "amount",
          "type": "uint256"
        },
        {
          "internalType": "uint256",
          "name": "period",
          "type": "uint256"
        },
        {
          "internalType": "uint256",
          "name": "end",
          "type": "uint256"
        },
        {
          "internalType": "uint256",
          "name": "claimed",
          "type": "uint256"
        },
        {
          "internalType": "uint256",
          "name": "lastClaimed",
          "type": "uint256"
        }
      ],
      "stateMutability": "view",
      "type": "function"
    }
  ],
  "bytecode": "0x608060405262030d40600655620c3500600755620aae60600855620249f06009556203f480600a556000600b55620186a0600d553480156200004057600080fd5b5060405162001cf838038062001cf883398101604081905262000063916200011e565b6200006e33620000b1565b600180546001600160a01b039485166001600160a01b03199182161790915560028054938516938216939093179092556003805491909316911617905562000168565b600080546001600160a01b038381166001600160a01b0319831681178455604051919092169283917f8be0079c531659141344cd1fd0a4f28419497f9722a3daafe3b4186f6b6457e09190a35050565b80516001600160a01b03811681146200011957600080fd5b919050565b6000806000606084860312156200013457600080fd5b6200013f8462000101565b92506200014f6020850162000101565b91506200015f6040850162000101565b90509250925092565b611b8080620001786000396000f3fe608060405234801561001057600080fd5b50600436106101e55760003560e01c8063918f86741161010f578063d02641a0116100a2578063f0f4426011610071578063f0f44260146103eb578063f11b8188146103fe578063f2fde38b14610487578063f4cdce3c1461049a57600080fd5b8063d02641a014610361578063d411401d14610374578063db0a9c3d1461037d578063e388c4231461038657600080fd5b8063a4006c8d116100de578063a4006c8d14610320578063a515366a14610333578063bf855e8714610346578063c74b60d01461034e57600080fd5b8063918f8674146102e75780639235f197146102f157806399a2faaf146102fa5780639f882bd51461030d57600080fd5b80635f390ec0116101875780636d0d6692116101565780636d0d6692146102a8578063715018a6146102bb57806375be5ae1146102c35780638da5cb5b146102d657600080fd5b80635f390ec01461027057806363fd7f491461028357806367f77e9b1461028c5780636ca0ad951461029557600080fd5b806333920e29116101c357806333920e2914610241578063372500ab1461024a5780633dd788a114610254578063563df32f1461025d57600080fd5b806309bb4f92146101ea578063199cbc541461020557806321dbe8761461020e575b600080fd5b6101f26104ad565b6040519081526020015b60405180910390f35b6101f2600b5481565b6102297321be370d5312f44cb42ce377bc9b8a0cef1a4c8381565b6040516001600160a01b0390911681526020016101fc565b6101f2600a5481565b61025261054d565b005b6101f2600c5481565b600354610229906001600160a01b031681565b61025261027e36600461188f565b610558565b6101f260065481565b6101f260095481565b6101f26102a33660046117a9565b6108ee565b600154610229906001600160a01b031681565b6102526109b7565b6102526102d13660046117a9565b6109eb565b6000546001600160a01b0316610229565b6101f2620f424081565b6101f260085481565b6102526103083660046119b3565b610a37565b61025261031b3660046117ea565b610a78565b6101f261032e366004611863565b610b14565b610252610341366004611863565b610be7565b6101f2610e7a565b61025261035c3660046117a9565b610f84565b6101f261036f3660046117a9565b610fd0565b6101f260075481565b6101f2600d5481565b6103c36103943660046117a9565b600560205260009081526040902080546001820154600283015460038401546004909401549293919290919085565b604080519586526020860194909452928401919091526060830152608082015260a0016101fc565b6102526103f93660046117a9565b6114cb565b61044f61040c3660046117a9565b600460205260009081526040902080546001820154600283015460039093015460ff9283169391926001600160a01b0380841693600160a01b9004909116911685565b60408051951515865260208601949094526001600160a01b03928316938501939093521515606084015216608082015260a0016101fc565b6102526104953660046117a9565b611517565b600254610229906001600160a01b031681565b600254600154604051633ddac95360e01b81526001600160a01b039182166004820152670de0b6b3a764000060248201526000929190911690633ddac9539060440160206040518083038186803b15801561050757600080fd5b505afa15801561051b573d6000803e3d6000fd5b505050506040513d601f19601f8201168201806040525081019061053f9190611971565b6001600160901b0316905090565b610556336115b2565b565b6000546001600160a01b0316331461058b5760405162461bcd60e51b815260040161058290611a3b565b60405180910390fd5b670de0b6b3a764000061059c6104ad565b106105f45760405162461bcd60e51b815260206004820152602260248201527f52656261746554726561737572793a20756e61626c6520746f20627579206261604482015261636b60f01b6064820152608401610582565b6003546040805163900cf0cf60e01b815290516000926001600160a01b03169163900cf0cf916004808301926020929190829003018186803b15801561063957600080fd5b505afa15801561064d573d6000803e3d6000fd5b505050506040513d601f19601f82011682018060405250810190610671919061199a565b905080600c5414156106d15760405162461bcd60e51b815260206004820152602360248201527f52656261746554726561737572793a20616c726561647920626f75676874206260448201526261636b60e81b6064820152608401610582565b600c81905560005b828110156108e857600460008585848181106106f7576106f7611b11565b905060200201602081019061070c91906117a9565b6001600160a01b0316815260208101919091526040016000205460ff166107755760405162461bcd60e51b815260206004820152601d60248201527f52656261746554726561737572793a20696e76616c696420746f6b656e0000006044820152606401610582565b600084848381811061078957610789611b11565b905060200201602081019061079e91906117a9565b9050806001600160a01b031663a9059cbb6107c16000546001600160a01b031690565b600d546040516370a0823160e01b8152306004820152620f424091906001600160a01b038716906370a082319060240160206040518083038186803b15801561080957600080fd5b505afa15801561081d573d6000803e3d6000fd5b505050506040513d601f19601f82011682018060405250810190610841919061199a565b61084b9190611aaa565b6108559190611a88565b6040516001600160e01b031960e085901b1681526001600160a01b0390921660048301526024820152604401602060405180830381600087803b15801561089b57600080fd5b505af11580156108af573d6000803e3d6000fd5b505050506040513d601f19601f820116820180604052508101906108d39190611904565b505080806108e090611ae0565b9150506106d9565b50505050565b6001600160a01b0381166000908152600560209081526040808320815160a081018352815481526001820154938101939093526002810154918301919091526003810154606083015260040154608082018190524211158061095857508060400151816080015110155b156109665750600092915050565b600081608001518260400151421161097e5742610984565b82604001515b61098e9190611ac9565b905081602001518183600001516109a59190611aaa565b6109af9190611a88565b949350505050565b6000546001600160a01b031633146109e15760405162461bcd60e51b815260040161058290611a3b565b610556600061173d565b6000546001600160a01b03163314610a155760405162461bcd60e51b815260040161058290611a3b565b600280546001600160a01b0319166001600160a01b0392909216919091179055565b6000546001600160a01b03163314610a615760405162461bcd60e51b815260040161058290611a3b565b600694909455600792909255600855600955600a55565b6000546001600160a01b03163314610aa25760405162461bcd60e51b815260040161058290611a3b565b6001600160a01b039586166000908152600460205260409020805460ff191695151595909517855560018501939093556002840180549286166001600160a81b031990931692909217600160a01b91151591909102179055600390910180546001600160a01b03191691909216179055565b6001600160a01b038216600090815260046020526040812054839060ff16610b4e5760405162461bcd60e51b8152600401610582906119ee565b6000610b586104ad565b90506000610b6586610fd0565b90506000610b71610e7a565b905082610b81620f424080611aaa565b6001600160a01b038916600090815260046020526040902060010154610baa620f424085611a70565b610bb4868b611aaa565b610bbe9190611aaa565b610bc89190611aaa565b610bd29190611a88565b610bdc9190611a88565b979650505050505050565b6001600160a01b038216600090815260046020526040902054829060ff16610c215760405162461bcd60e51b8152600401610582906119ee565b60008211610c7d5760405162461bcd60e51b815260206004820152602360248201527f52656261746554726561737572793a20696e76616c696420626f6e6420616d6f6044820152621d5b9d60ea1b6064820152608401610582565b6000610c898484610b14565b600b546001546040516370a0823160e01b815230600482015292935090916001600160a01b03909116906370a082319060240160206040518083038186803b158015610cd457600080fd5b505afa158015610ce8573d6000803e3d6000fd5b505050506040513d601f19601f82011682018060405250810190610d0c919061199a565b610d169190611ac9565b811115610d775760405162461bcd60e51b815260206004820152602960248201527f52656261746554726561737572793a20696e73756666696369656e7420746f6d604482015268622062616c616e636560b81b6064820152608401610582565b6040516323b872dd60e01b8152336004820152306024820152604481018490526001600160a01b038516906323b872dd90606401602060405180830381600087803b158015610dc557600080fd5b505af1158015610dd9573d6000803e3d6000fd5b505050506040513d601f19601f82011682018060405250810190610dfd9190611904565b50610e07336115b2565b336000908152600560205260409020600381015481548391610e2891611ac9565b610e329190611a70565b8155600a5460018201819055610e489042611a70565b6002820155600060038201819055426004830155600b8054849290610e6e908490611a70565b90915550505050505050565b600080610e856104ad565b9050670de0b6b3a7640000811015610e9f57600091505090565b6000620f4240670de0b6b3a7640000610eb88285611aaa565b610ec29190611a88565b610ecc9190611ac9565b9050600654811015610ee15760009250505090565b6008548111610f1a57620f424060075460065483610eff9190611ac9565b610f099190611aaa565b610f139190611a88565b9250505090565b6000620f4240600754600654600854610f339190611ac9565b610f3d9190611aaa565b610f479190611a88565b9050620f424060095460085484610f5e9190611ac9565b610f689190611aaa565b610f729190611a88565b610f7c9082611a70565b935050505090565b6000546001600160a01b03163314610fae5760405162461bcd60e51b815260040161058290611a3b565b600180546001600160a01b0319166001600160a01b0392909216919091179055565b6001600160a01b038116600090815260046020526040812054829060ff1661100a5760405162461bcd60e51b8152600401610582906119ee565b6001600160a01b03808416600090815260046020908152604091829020825160a081018452815460ff908116151582526001830154938201939093526002820154808616948201859052600160a01b900490921615156060830181905260039091015490931660808201529161111357604051633ddac95360e01b81526001600160a01b038681166004830152670de0b6b3a76400006024830152821690633ddac9539060440160206040518083038186803b1580156110c957600080fd5b505afa1580156110dd573d6000803e3d6000fd5b505050506040513d601f19601f820116820180604052508101906111019190611971565b6001600160901b0316935050506114c5565b6000826080015190506000816001600160a01b03166318160ddd6040518163ffffffff1660e01b815260040160206040518083038186803b15801561115757600080fd5b505afa15801561116b573d6000803e3d6000fd5b505050506040513d601f19601f8201168201806040525081019061118f919061199a565b90506000826001600160a01b0316630dfe16816040518163ffffffff1660e01b815260040160206040518083038186803b1580156111cc57600080fd5b505afa1580156111e0573d6000803e3d6000fd5b505050506040513d601f19601f8201168201806040525081019061120491906117cd565b90506000836001600160a01b031663d21220a76040518163ffffffff1660e01b815260040160206040518083038186803b15801561124157600080fd5b505afa158015611255573d6000803e3d6000fd5b505050506040513d601f19601f8201168201806040525081019061127991906117cd565b9050600080856001600160a01b0316630902f1ac6040518163ffffffff1660e01b815260040160606040518083038186803b1580156112b757600080fd5b505afa1580156112cb573d6000803e3d6000fd5b505050506040513d601f19601f820116820180604052508101906112ef9190611921565b506001600160701b0391821693501690506001600160a01b0383167321be370d5312f44cb42ce377bc9b8a0cef1a4c83141561140757604051633ddac95360e01b81526001600160a01b038581166004830152670de0b6b3a7640000602483015260009190891690633ddac9539060440160206040518083038186803b15801561137857600080fd5b505afa15801561138c573d6000803e3d6000fd5b505050506040513d601f19601f820116820180604052508101906113b09190611971565b6001600160901b03169050856113ce83670de0b6b3a7640000611aaa565b6113d89190611a88565b866113e38584611aaa565b6113ed9190611a88565b6113f79190611a70565b9a505050505050505050506114c5565b604051633ddac95360e01b81526001600160a01b038481166004830152670de0b6b3a7640000602483015260009190891690633ddac9539060440160206040518083038186803b15801561145a57600080fd5b505afa15801561146e573d6000803e3d6000fd5b505050506040513d601f19601f820116820180604052508101906114929190611971565b6001600160901b03169050856114b084670de0b6b3a7640000611aaa565b6114ba9190611a88565b866113e38484611aaa565b50919050565b6000546001600160a01b031633146114f55760405162461bcd60e51b815260040161058290611a3b565b600380546001600160a01b0319166001600160a01b0392909216919091179055565b6000546001600160a01b031633146115415760405162461bcd60e51b815260040161058290611a3b565b6001600160a01b0381166115a65760405162461bcd60e51b815260206004820152602660248201527f4f776e61626c653a206e6577206f776e657220697320746865207a65726f206160448201526564647265737360d01b6064820152608401610582565b6115af8161173d565b50565b6001600160a01b0381166000908152600560205260409020805415806115dc575060038101548154145b156115e5575050565b80600401544211158061160057508060020154816004015410155b15611609575050565b60008160040154826002015442116116215742611627565b82600201545b6116319190611ac9565b90506000826001015482846000015461164a9190611aaa565b6116549190611a88565b9050806116615750505050565b808360030160008282546116759190611a70565b90915550506002830154421161168b5742611691565b82600201545b836004018190555080600b60008282546116ab9190611ac9565b909155505060015460405163a9059cbb60e01b81526001600160a01b038681166004830152602482018490529091169063a9059cbb90604401602060405180830381600087803b1580156116fe57600080fd5b505af1158015611712573d6000803e3d6000fd5b505050506040513d601f19601f820116820180604052508101906117369190611904565b5050505050565b600080546001600160a01b038381166001600160a01b0319831681178455604051919092169283917f8be0079c531659141344cd1fd0a4f28419497f9722a3daafe3b4186f6b6457e09190a35050565b80516001600160701b03811681146117a457600080fd5b919050565b6000602082840312156117bb57600080fd5b81356117c681611b27565b9392505050565b6000602082840312156117df57600080fd5b81516117c681611b27565b60008060008060008060c0878903121561180357600080fd5b863561180e81611b27565b9550602087013561181e81611b3c565b945060408701359350606087013561183581611b27565b9250608087013561184581611b3c565b915060a087013561185581611b27565b809150509295509295509295565b6000806040838503121561187657600080fd5b823561188181611b27565b946020939093013593505050565b600080602083850312156118a257600080fd5b823567ffffffffffffffff808211156118ba57600080fd5b818501915085601f8301126118ce57600080fd5b8135818111156118dd57600080fd5b8660208260051b85010111156118f257600080fd5b60209290920196919550909350505050565b60006020828403121561191657600080fd5b81516117c681611b3c565b60008060006060848603121561193657600080fd5b61193f8461178d565b925061194d6020850161178d565b9150604084015163ffffffff8116811461196657600080fd5b809150509250925092565b60006020828403121561198357600080fd5b81516001600160901b03811681146117c657600080fd5b6000602082840312156119ac57600080fd5b5051919050565b600080600080600060a086880312156119cb57600080fd5b505083359560208501359550604085013594606081013594506080013592509050565b6020808252602d908201527f52656261746554726561737572793a20746f6b656e206973206e6f742061206260408201526c1bdb9918589b1948185cdcd95d609a1b606082015260800190565b6020808252818101527f4f776e61626c653a2063616c6c6572206973206e6f7420746865206f776e6572604082015260600190565b60008219821115611a8357611a83611afb565b500190565b600082611aa557634e487b7160e01b600052601260045260246000fd5b500490565b6000816000190483118215151615611ac457611ac4611afb565b500290565b600082821015611adb57611adb611afb565b500390565b6000600019821415611af457611af4611afb565b5060010190565b634e487b7160e01b600052601160045260246000fd5b634e487b7160e01b600052603260045260246000fd5b6001600160a01b03811681146115af57600080fd5b80151581146115af57600080fdfea2646970667358221220cb9bf27697cf0ce186322e4bd42878b0607d9dba858c39b12a5d31acfae66f0f64736f6c63430008070033",
  "linkReferences": {},
  "deployedLinkReferences": {}
}