{
  "_format": "hh-sol-artifact-1",
  "contractName": "TShare",
  "sourceName": "contracts/TShare.sol",
  "abi": [
    {
      "inputs": [
        {
          "internalType": "uint256",
          "name": "_startTime",
          "type": "uint256"
        },
        {
          "internalType": "address",
          "name": "_communityFund",
          "type": "address"
        },
        {
          "internalType": "address",
          "name": "_devFund",
          "type": "address"
        }
      ],
      "stateMutability": "nonpayable",
      "type": "constructor"
    },
    {
      "anonymous": false,
      "inputs": [
        {
          "indexed": true,
          "internalType": "address",
          "name": "owner",
          "type": "address"
        },
        {
          "indexed": true,
          "internalType": "address",
          "name": "spender",
          "type": "address"
        },
        {
          "indexed": false,
          "internalType": "uint256",
          "name": "value",
          "type": "uint256"
        }
      ],
      "name": "Approval",
      "type": "event"
    },
    {
      "anonymous": false,
      "inputs": [
        {
          "indexed": true,
          "internalType": "address",
          "name": "previousOperator",
          "type": "address"
        },
        {
          "indexed": true,
          "internalType": "address",
          "name": "newOperator",
          "type": "address"
        }
      ],
      "name": "OperatorTransferred",
      "type": "event"
    },
    {
      "anonymous": false,
      "inputs": [
        {
          "indexed": true,
          "internalType": "address",
          "name": "previousOwner",
          "type": "address"
        },
        {
          "indexed": true,
          "internalType": "address",
          "name": "newOwner",
          "type": "address"
        }
      ],
      "name": "OwnershipTransferred",
      "type": "event"
    },
    {
      "anonymous": false,
      "inputs": [
        {
          "indexed": true,
          "internalType": "address",
          "name": "from",
          "type": "address"
        },
        {
          "indexed": true,
          "internalType": "address",
          "name": "to",
          "type": "address"
        },
        {
          "indexed": false,
          "internalType": "uint256",
          "name": "value",
          "type": "uint256"
        }
      ],
      "name": "Transfer",
      "type": "event"
    },
    {
      "inputs": [],
      "name": "COMMUNITY_FUND_POOL_ALLOCATION",
      "outputs": [
        {
          "internalType": "uint256",
          "name": "",
          "type": "uint256"
        }
      ],
      "stateMutability": "view",
      "type": "function"
    },
    {
      "inputs": [],
      "name": "DEV_FUND_POOL_ALLOCATION",
      "outputs": [
        {
          "internalType": "uint256",
          "name": "",
          "type": "uint256"
        }
      ],
      "stateMutability": "view",
      "type": "function"
    },
    {
      "inputs": [],
      "name": "FARMING_POOL_REWARD_ALLOCATION",
      "outputs": [
        {
          "internalType": "uint256",
          "name": "",
          "type": "uint256"
        }
      ],
      "stateMutability": "view",
      "type": "function"
    },
    {
      "inputs": [],
      "name": "VESTING_DURATION",
      "outputs": [
        {
          "internalType": "uint256",
          "name": "",
          "type": "uint256"
        }
      ],
      "stateMutability": "view",
      "type": "function"
    },
    {
      "inputs": [
        {
          "internalType": "address",
          "name": "owner",
          "type": "address"
        },
        {
          "internalType": "address",
          "name": "spender",
          "type": "address"
        }
      ],
      "name": "allowance",
      "outputs": [
        {
          "internalType": "uint256",
          "name": "",
          "type": "uint256"
        }
      ],
      "stateMutability": "view",
      "type": "function"
    },
    {
      "inputs": [
        {
          "internalType": "address",
          "name": "spender",
          "type": "address"
        },
        {
          "internalType": "uint256",
          "name": "amount",
          "type": "uint256"
        }
      ],
      "name": "approve",
      "outputs": [
        {
          "internalType": "bool",
          "name": "",
          "type": "bool"
        }
      ],
      "stateMutability": "nonpayable",
      "type": "function"
    },
    {
      "inputs": [
        {
          "internalType": "address",
          "name": "account",
          "type": "address"
        }
      ],
      "name": "balanceOf",
      "outputs": [
        {
          "internalType": "uint256",
          "name": "",
          "type": "uint256"
        }
      ],
      "stateMutability": "view",
      "type": "function"
    },
    {
      "inputs": [
        {
          "internalType": "uint256",
          "name": "amount",
          "type": "uint256"
        }
      ],
      "name": "burn",
      "outputs": [],
      "stateMutability": "nonpayable",
      "type": "function"
    },
    {
      "inputs": [
        {
          "internalType": "address",
          "name": "account",
          "type": "address"
        },
        {
          "internalType": "uint256",
          "name": "amount",
          "type": "uint256"
        }
      ],
      "name": "burnFrom",
      "outputs": [],
      "stateMutability": "nonpayable",
      "type": "function"
    },
    {
      "inputs": [],
      "name": "claimRewards",
      "outputs": [],
      "stateMutability": "nonpayable",
      "type": "function"
    },
    {
      "inputs": [],
      "name": "communityFund",
      "outputs": [
        {
          "internalType": "address",
          "name": "",
          "type": "address"
        }
      ],
      "stateMutability": "view",
      "type": "function"
    },
    {
      "inputs": [],
      "name": "communityFundLastClaimed",
      "outputs": [
        {
          "internalType": "uint256",
          "name": "",
          "type": "uint256"
        }
      ],
      "stateMutability": "view",
      "type": "function"
    },
    {
      "inputs": [],
      "name": "communityFundRewardRate",
      "outputs": [
        {
          "internalType": "uint256",
          "name": "",
          "type": "uint256"
        }
      ],
      "stateMutability": "view",
      "type": "function"
    },
    {
      "inputs": [],
      "name": "decimals",
      "outputs": [
        {
          "internalType": "uint8",
          "name": "",
          "type": "uint8"
        }
      ],
      "stateMutability": "view",
      "type": "function"
    },
    {
      "inputs": [
        {
          "internalType": "address",
          "name": "spender",
          "type": "address"
        },
        {
          "internalType": "uint256",
          "name": "subtractedValue",
          "type": "uint256"
        }
      ],
      "name": "decreaseAllowance",
      "outputs": [
        {
          "internalType": "bool",
          "name": "",
          "type": "bool"
        }
      ],
      "stateMutability": "nonpayable",
      "type": "function"
    },
    {
      "inputs": [],
      "name": "devFund",
      "outputs": [
        {
          "internalType": "address",
          "name": "",
          "type": "address"
        }
      ],
      "stateMutability": "view",
      "type": "function"
    },
    {
      "inputs": [],
      "name": "devFundLastClaimed",
      "outputs": [
        {
          "internalType": "uint256",
          "name": "",
          "type": "uint256"
        }
      ],
      "stateMutability": "view",
      "type": "function"
    },
    {
      "inputs": [],
      "name": "devFundRewardRate",
      "outputs": [
        {
          "internalType": "uint256",
          "name": "",
          "type": "uint256"
        }
      ],
      "stateMutability": "view",
      "type": "function"
    },
    {
      "inputs": [
        {
          "internalType": "address",
          "name": "_farmingIncentiveFund",
          "type": "address"
        }
      ],
      "name": "distributeReward",
      "outputs": [],
      "stateMutability": "nonpayable",
      "type": "function"
    },
    {
      "inputs": [],
      "name": "endTime",
      "outputs": [
        {
          "internalType": "uint256",
          "name": "",
          "type": "uint256"
        }
      ],
      "stateMutability": "view",
      "type": "function"
    },
    {
      "inputs": [
        {
          "internalType": "contract IERC20",
          "name": "_token",
          "type": "address"
        },
        {
          "internalType": "uint256",
          "name": "_amount",
          "type": "uint256"
        },
        {
          "internalType": "address",
          "name": "_to",
          "type": "address"
        }
      ],
      "name": "governanceRecoverUnsupported",
      "outputs": [],
      "stateMutability": "nonpayable",
      "type": "function"
    },
    {
      "inputs": [
        {
          "internalType": "address",
          "name": "spender",
          "type": "address"
        },
        {
          "internalType": "uint256",
          "name": "addedValue",
          "type": "uint256"
        }
      ],
      "name": "increaseAllowance",
      "outputs": [
        {
          "internalType": "bool",
          "name": "",
          "type": "bool"
        }
      ],
      "stateMutability": "nonpayable",
      "type": "function"
    },
    {
      "inputs": [],
      "name": "isOperator",
      "outputs": [
        {
          "internalType": "bool",
          "name": "",
          "type": "bool"
        }
      ],
      "stateMutability": "view",
      "type": "function"
    },
    {
      "inputs": [],
      "name": "name",
      "outputs": [
        {
          "internalType": "string",
          "name": "",
          "type": "string"
        }
      ],
      "stateMutability": "view",
      "type": "function"
    },
    {
      "inputs": [],
      "name": "operator",
      "outputs": [
        {
          "internalType": "address",
          "name": "",
          "type": "address"
        }
      ],
      "stateMutability": "view",
      "type": "function"
    },
    {
      "inputs": [],
      "name": "owner",
      "outputs": [
        {
          "internalType": "address",
          "name": "",
          "type": "address"
        }
      ],
      "stateMutability": "view",
      "type": "function"
    },
    {
      "inputs": [],
      "name": "renounceOwnership",
      "outputs": [],
      "stateMutability": "nonpayable",
      "type": "function"
    },
    {
      "inputs": [],
      "name": "rewardPoolDistributed",
      "outputs": [
        {
          "internalType": "bool",
          "name": "",
          "type": "bool"
        }
      ],
      "stateMutability": "view",
      "type": "function"
    },
    {
      "inputs": [
        {
          "internalType": "address",
          "name": "_devFund",
          "type": "address"
        }
      ],
      "name": "setDevFund",
      "outputs": [],
      "stateMutability": "nonpayable",
      "type": "function"
    },
    {
      "inputs": [
        {
          "internalType": "address",
          "name": "_communityFund",
          "type": "address"
        }
      ],
      "name": "setTreasuryFund",
      "outputs": [],
      "stateMutability": "nonpayable",
      "type": "function"
    },
    {
      "inputs": [],
      "name": "startTime",
      "outputs": [
        {
          "internalType": "uint256",
          "name": "",
          "type": "uint256"
        }
      ],
      "stateMutability": "view",
      "type": "function"
    },
    {
      "inputs": [],
      "name": "symbol",
      "outputs": [
        {
          "internalType": "string",
          "name": "",
          "type": "string"
        }
      ],
      "stateMutability": "view",
      "type": "function"
    },
    {
      "inputs": [],
      "name": "totalSupply",
      "outputs": [
        {
          "internalType": "uint256",
          "name": "",
          "type": "uint256"
        }
      ],
      "stateMutability": "view",
      "type": "function"
    },
    {
      "inputs": [
        {
          "internalType": "address",
          "name": "recipient",
          "type": "address"
        },
        {
          "internalType": "uint256",
          "name": "amount",
          "type": "uint256"
        }
      ],
      "name": "transfer",
      "outputs": [
        {
          "internalType": "bool",
          "name": "",
          "type": "bool"
        }
      ],
      "stateMutability": "nonpayable",
      "type": "function"
    },
    {
      "inputs": [
        {
          "internalType": "address",
          "name": "sender",
          "type": "address"
        },
        {
          "internalType": "address",
          "name": "recipient",
          "type": "address"
        },
        {
          "internalType": "uint256",
          "name": "amount",
          "type": "uint256"
        }
      ],
      "name": "transferFrom",
      "outputs": [
        {
          "internalType": "bool",
          "name": "",
          "type": "bool"
        }
      ],
      "stateMutability": "nonpayable",
      "type": "function"
    },
    {
      "inputs": [
        {
          "internalType": "address",
          "name": "newOperator_",
          "type": "address"
        }
      ],
      "name": "transferOperator",
      "outputs": [],
      "stateMutability": "nonpayable",
      "type": "function"
    },
    {
      "inputs": [
        {
          "internalType": "address",
          "name": "newOwner",
          "type": "address"
        }
      ],
      "name": "transferOwnership",
      "outputs": [],
      "stateMutability": "nonpayable",
      "type": "function"
    },
    {
      "inputs": [],
      "name": "unclaimedDevFund",
      "outputs": [
        {
          "internalType": "uint256",
          "name": "_pending",
          "type": "uint256"
        }
      ],
      "stateMutability": "view",
      "type": "function"
    },
    {
      "inputs": [],
      "name": "unclaimedTreasuryFund",
      "outputs": [
        {
          "internalType": "uint256",
          "name": "_pending",
          "type": "uint256"
        }
      ],
      "stateMutability": "view",
      "type": "function"
    }
  ],
  "bytecode": "0x6080604052600f805460ff191690553480156200001b57600080fd5b5060405162001ee538038062001ee5833981810160405260608110156200004157600080fd5b50805160208083015160409384015184518086018652600681526557534841524560d01b8185019081528651808801909752600c87526b2ba9a420a922902a37b5b2b760a11b948701949094528051949592949193909291620000a7916003916200046c565b508051620000bd9060049060208401906200046c565b50506005805460ff19166012179055506000620000d962000289565b60058054610100600160a81b0319166101006001600160a01b03841690810291909117909155604051919250906000907f8be0079c531659141344cd1fd0a4f28419497f9722a3daafe3b4186f6b6457e0908290a3506200013962000289565b600680546001600160a01b0319166001600160a01b0392831617908190556040519116906000907f74da04524d50c64947f5dd5381ef1a4dca5cba8ed1d816243f9e48aa0b5617ed908290a36200019933670de0b6b3a76400006200028d565b600783905562ed4e00808401600855600d849055600e849055620001cc906000906200039c602090811b620010a117901c565b600955620001f469010f0cf064dd5920000062ed4e006200039c602090811b620010a117901c565b600a556001600160a01b03811662000253576040805162461bcd60e51b815260206004820152601360248201527f416464726573732063616e6e6f74206265203000000000000000000000000000604482015290519081900360640190fd5b600c80546001600160a01b039283166001600160a01b031991821617909155600b80549390921692169190911790555062000508565b3390565b6001600160a01b038216620002e9576040805162461bcd60e51b815260206004820152601f60248201527f45524332303a206d696e7420746f20746865207a65726f206164647265737300604482015290519081900360640190fd5b620002f76000838362000405565b62000313816002546200040a60201b620011081790919060201c565b6002556001600160a01b0382166000908152602081815260409091205462000346918390620011086200040a821b17901c565b6001600160a01b0383166000818152602081815260408083209490945583518581529351929391927fddf252ad1be2c89b69c2b068fc378daa952ba7f163c4a11628f55a4df523b3ef9281900390910190a35050565b6000808211620003f3576040805162461bcd60e51b815260206004820152601a60248201527f536166654d6174683a206469766973696f6e206279207a65726f000000000000604482015290519081900360640190fd5b818381620003fd57fe5b049392505050565b505050565b60008282018381101562000465576040805162461bcd60e51b815260206004820152601b60248201527f536166654d6174683a206164646974696f6e206f766572666c6f770000000000604482015290519081900360640190fd5b9392505050565b828054600181600116156101000203166002900490600052602060002090601f016020900481019282601f10620004af57805160ff1916838001178555620004df565b82800160010185558215620004df579182015b82811115620004df578251825591602001919060010190620004c2565b50620004ed929150620004f1565b5090565b5b80821115620004ed5760008155600101620004f2565b6119cd80620005186000396000f3fe608060405234801561001057600080fd5b506004361061023c5760003560e01c806344cdc4541161013b57806395d89b41116100b8578063abb4b1be1161007c578063abb4b1be1461059f578063ae4db919146105a7578063dd62ed3e146105cd578063f2fde38b146105fb578063f746b718146106215761023c565b806395d89b411461052f5780639662676c14610537578063a06160fd1461053f578063a457c2d714610547578063a9059cbb146105735761023c565b806370a08231116100ff57806370a08231146104c5578063715018a6146104eb57806378e97925146104f357806379cc6790146104fb5780638da5cb5b146105275761023c565b806344cdc4541461046f5780634cfc4d30146104775780634f337dd51461047f57806354575af414610487578063570ca735146104bd5761023c565b80632c07a624116101c9578063395093511161018d578063395093511461040e5780633bba8eed1461043a57806342966c68146104425780634390d2a81461045f5780634456eda2146104675761023c565b80632c07a624146103d05780632e3367ce146103d8578063313ce567146103e05780633197cbb6146103fe578063372500ab146104065761023c565b8063095ea7b311610210578063095ea7b314610324578063177647821461036457806318160ddd1461036c57806323b872dd1461037457806329605e77146103aa5761023c565b8062f380f414610241578063040173151461026557806306fdde031461027f578063092193ab146102fc575b600080fd5b610249610647565b604080516001600160a01b039092168252519081900360200190f35b61026d610656565b60408051918252519081900360200190f35b61028761065c565b6040805160208082528351818301528351919283929083019185019080838360005b838110156102c15781810151838201526020016102a9565b50505050905090810190601f1680156102ee5780820380516001836020036101000a031916815260200191505b509250505060405180910390f35b6103226004803603602081101561031257600080fd5b50356001600160a01b03166106f3565b005b6103506004803603604081101561033a57600080fd5b506001600160a01b03813516906020013561080c565b604080519115158252519081900360200190f35b61026d61082a565b61026d610878565b6103506004803603606081101561038a57600080fd5b506001600160a01b0381358116916020810135909116906040013561087e565b610322600480360360208110156103c057600080fd5b50356001600160a01b0316610905565b61026d610982565b61026d6109c4565b6103e86109ca565b6040805160ff9092168252519081900360200190f35b61026d6109d3565b6103226109d9565b6103506004803603604081101561042457600080fd5b506001600160a01b038135169060200135610a65565b61026d610ab3565b6103226004803603602081101561045857600080fd5b5035610ab8565b610249610ac1565b610350610ad0565b61026d610af6565b61026d610afc565b61026d610b03565b6103226004803603606081101561049d57600080fd5b506001600160a01b03813581169160208101359160409091013516610b11565b610249610be2565b61026d600480360360208110156104db57600080fd5b50356001600160a01b0316610bf1565b610322610c0c565b61026d610cd0565b6103226004803603604081101561051157600080fd5b506001600160a01b038135169060200135610cd6565b610249610d30565b610287610d44565b610350610da5565b61026d610dae565b6103506004803603604081101561055d57600080fd5b506001600160a01b038135169060200135610dbc565b6103506004803603604081101561058957600080fd5b506001600160a01b038135169060200135610e24565b61026d610e38565b610322600480360360208110156105bd57600080fd5b50356001600160a01b0316610e3e565b61026d600480360360408110156105e357600080fd5b506001600160a01b0381358116916020013516610eec565b6103226004803603602081101561061157600080fd5b50356001600160a01b0316610f17565b6103226004803603602081101561063757600080fd5b50356001600160a01b0316611037565b600b546001600160a01b031681565b600e5481565b60038054604080516020601f60026000196101006001881615020190951694909404938401819004810282018101909252828152606093909290918301828280156106e85780601f106106bd576101008083540402835291602001916106e8565b820191906000526020600020905b8154815290600101906020018083116106cb57829003601f168201915b505050505090505b90565b6006546001600160a01b0316331461073c5760405162461bcd60e51b81526004018080602001828103825260248152602001806118e56024913960400191505060405180910390fd5b600f5460ff1615610794576040805162461bcd60e51b815260206004820152601860248201527f6f6e6c792063616e2064697374726962757465206f6e63650000000000000000604482015290519081900360640190fd5b6001600160a01b0381166107e8576040805162461bcd60e51b81526020600482015260166024820152750857d9985c9b5a5b99d25b98d95b9d1a5d99519d5b9960521b604482015290519081900360640190fd5b600f805460ff1916600117905561080981690cb49b44ba602d800000611169565b50565b6000610820610819611259565b848461125d565b5060015b92915050565b600854600090429081111561083e57506008545b80600d54106108515760009150506106f0565b61087260095461086c600d548461134990919063ffffffff16565b906113a6565b91505090565b60025490565b600061088b8484846113ff565b6108fb84610897611259565b6108f685604051806060016040528060288152602001611899602891396001600160a01b038a166000908152600160205260408120906108d5611259565b6001600160a01b03168152602081019190915260400160002054919061155a565b61125d565b5060019392505050565b61090d611259565b6001600160a01b031661091e610d30565b6001600160a01b031614610979576040805162461bcd60e51b815260206004820181905260248201527f4f776e61626c653a2063616c6c6572206973206e6f7420746865206f776e6572604482015290519081900360640190fd5b610809816115f1565b600854600090429081111561099657506008545b80600e54106109a95760009150506106f0565b610872600a5461086c600e548461134990919063ffffffff16565b600a5481565b60055460ff1690565b60085481565b60006109e361082a565b90506000811180156109ff5750600b546001600160a01b031615155b15610a1f57600b54610a1a906001600160a01b031682611169565b42600d555b610a27610982565b9050600081118015610a435750600c546001600160a01b031615155b1561080957600c54610a5e906001600160a01b031682611169565b42600e5550565b6000610820610a72611259565b846108f68560016000610a83611259565b6001600160a01b03908116825260208083019390935260409182016000908120918c168152925290205490611108565b600081565b6108098161168e565b600c546001600160a01b031681565b6006546000906001600160a01b0316610ae7611259565b6001600160a01b031614905090565b60095481565b62ed4e0081565b69010f0cf064dd5920000081565b6006546001600160a01b03163314610b5a5760405162461bcd60e51b81526004018080602001828103825260248152602001806118e56024913960400191505060405180910390fd5b826001600160a01b031663a9059cbb82846040518363ffffffff1660e01b815260040180836001600160a01b0316815260200182815260200192505050602060405180830381600087803b158015610bb157600080fd5b505af1158015610bc5573d6000803e3d6000fd5b505050506040513d6020811015610bdb57600080fd5b5050505050565b6006546001600160a01b031690565b6001600160a01b031660009081526020819052604090205490565b610c14611259565b6001600160a01b0316610c25610d30565b6001600160a01b031614610c80576040805162461bcd60e51b815260206004820181905260248201527f4f776e61626c653a2063616c6c6572206973206e6f7420746865206f776e6572604482015290519081900360640190fd5b60055460405160009161010090046001600160a01b0316907f8be0079c531659141344cd1fd0a4f28419497f9722a3daafe3b4186f6b6457e0908390a360058054610100600160a81b0319169055565b60075481565b6000610d0d826040518060600160405280602481526020016118c160249139610d0686610d01611259565b610eec565b919061155a565b9050610d2183610d1b611259565b8361125d565b610d2b838361169b565b505050565b60055461010090046001600160a01b031690565b60048054604080516020601f60026000196101006001881615020190951694909404938401819004810282018101909252828152606093909290918301828280156106e85780601f106106bd576101008083540402835291602001916106e8565b600f5460ff1681565b690cb49b44ba602d80000081565b6000610820610dc9611259565b846108f6856040518060600160405280602581526020016119736025913960016000610df3611259565b6001600160a01b03908116825260208083019390935260409182016000908120918d1681529252902054919061155a565b6000610820610e31611259565b84846113ff565b600d5481565b600c546001600160a01b03163314610e86576040805162461bcd60e51b8152602060048083019190915260248201526310b232bb60e11b604482015290519081900360640190fd5b6001600160a01b038116610eca576040805162461bcd60e51b815260206004808301919091526024820152637a65726f60e01b604482015290519081900360640190fd5b600c80546001600160a01b0319166001600160a01b0392909216919091179055565b6001600160a01b03918216600090815260016020908152604080832093909416825291909152205490565b610f1f611259565b6001600160a01b0316610f30610d30565b6001600160a01b031614610f8b576040805162461bcd60e51b815260206004820181905260248201527f4f776e61626c653a2063616c6c6572206973206e6f7420746865206f776e6572604482015290519081900360640190fd5b6001600160a01b038116610fd05760405162461bcd60e51b81526004018080602001828103825260268152602001806117dd6026913960400191505060405180910390fd5b6005546040516001600160a01b0380841692610100900416907f8be0079c531659141344cd1fd0a4f28419497f9722a3daafe3b4186f6b6457e090600090a3600580546001600160a01b0390921661010002610100600160a81b0319909216919091179055565b600c546001600160a01b0316331461107f576040805162461bcd60e51b8152602060048083019190915260248201526310b232bb60e11b604482015290519081900360640190fd5b600b80546001600160a01b0319166001600160a01b0392909216919091179055565b60008082116110f7576040805162461bcd60e51b815260206004820152601a60248201527f536166654d6174683a206469766973696f6e206279207a65726f000000000000604482015290519081900360640190fd5b81838161110057fe5b049392505050565b600082820183811015611162576040805162461bcd60e51b815260206004820152601b60248201527f536166654d6174683a206164646974696f6e206f766572666c6f770000000000604482015290519081900360640190fd5b9392505050565b6001600160a01b0382166111c4576040805162461bcd60e51b815260206004820152601f60248201527f45524332303a206d696e7420746f20746865207a65726f206164647265737300604482015290519081900360640190fd5b6111d060008383610d2b565b6002546111dd9082611108565b6002556001600160a01b0382166000908152602081905260409020546112039082611108565b6001600160a01b0383166000818152602081815260408083209490945583518581529351929391927fddf252ad1be2c89b69c2b068fc378daa952ba7f163c4a11628f55a4df523b3ef9281900390910190a35050565b3390565b6001600160a01b0383166112a25760405162461bcd60e51b815260040180806020018281038252602481526020018061194f6024913960400191505060405180910390fd5b6001600160a01b0382166112e75760405162461bcd60e51b81526004018080602001828103825260228152602001806118036022913960400191505060405180910390fd5b6001600160a01b03808416600081815260016020908152604080832094871680845294825291829020859055815185815291517f8c5be1e5ebec7d5bd14f71427d1e84f3dd0314c0f7b2291e5b200ac8c7c3b9259281900390910190a3505050565b6000828211156113a0576040805162461bcd60e51b815260206004820152601e60248201527f536166654d6174683a207375627472616374696f6e206f766572666c6f770000604482015290519081900360640190fd5b50900390565b6000826113b557506000610824565b828202828482816113c257fe5b04146111625760405162461bcd60e51b81526004018080602001828103825260218152602001806118786021913960400191505060405180910390fd5b6001600160a01b0383166114445760405162461bcd60e51b815260040180806020018281038252602581526020018061192a6025913960400191505060405180910390fd5b6001600160a01b0382166114895760405162461bcd60e51b81526004018080602001828103825260238152602001806117986023913960400191505060405180910390fd5b611494838383610d2b565b6114d181604051806060016040528060268152602001611825602691396001600160a01b038616600090815260208190526040902054919061155a565b6001600160a01b0380851660009081526020819052604080822093909355908416815220546115009082611108565b6001600160a01b038084166000818152602081815260409182902094909455805185815290519193928716927fddf252ad1be2c89b69c2b068fc378daa952ba7f163c4a11628f55a4df523b3ef92918290030190a3505050565b600081848411156115e95760405162461bcd60e51b81526004018080602001828103825283818151815260200191508051906020019080838360005b838110156115ae578181015183820152602001611596565b50505050905090810190601f1680156115db5780820380516001836020036101000a031916815260200191505b509250505060405180910390fd5b505050900390565b6001600160a01b0381166116365760405162461bcd60e51b815260040180806020018281038252602d81526020018061184b602d913960400191505060405180910390fd5b6040516001600160a01b038216906000907f74da04524d50c64947f5dd5381ef1a4dca5cba8ed1d816243f9e48aa0b5617ed908290a3600680546001600160a01b0319166001600160a01b0392909216919091179055565b610809611699611259565b825b6001600160a01b0382166116e05760405162461bcd60e51b81526004018080602001828103825260218152602001806119096021913960400191505060405180910390fd5b6116ec82600083610d2b565b611729816040518060600160405280602281526020016117bb602291396001600160a01b038516600090815260208190526040902054919061155a565b6001600160a01b03831660009081526020819052604090205560025461174f9082611349565b6002556040805182815290516000916001600160a01b038516917fddf252ad1be2c89b69c2b068fc378daa952ba7f163c4a11628f55a4df523b3ef9181900360200190a3505056fe45524332303a207472616e7366657220746f20746865207a65726f206164647265737345524332303a206275726e20616d6f756e7420657863656564732062616c616e63654f776e61626c653a206e6577206f776e657220697320746865207a65726f206164647265737345524332303a20617070726f766520746f20746865207a65726f206164647265737345524332303a207472616e7366657220616d6f756e7420657863656564732062616c616e63656f70657261746f723a207a65726f206164647265737320676976656e20666f72206e6577206f70657261746f72536166654d6174683a206d756c7469706c69636174696f6e206f766572666c6f7745524332303a207472616e7366657220616d6f756e74206578636565647320616c6c6f77616e636545524332303a206275726e20616d6f756e74206578636565647320616c6c6f77616e63656f70657261746f723a2063616c6c6572206973206e6f7420746865206f70657261746f7245524332303a206275726e2066726f6d20746865207a65726f206164647265737345524332303a207472616e736665722066726f6d20746865207a65726f206164647265737345524332303a20617070726f76652066726f6d20746865207a65726f206164647265737345524332303a2064656372656173656420616c6c6f77616e63652062656c6f77207a65726fa264697066735822122054fa2e6068a8d34da114c7464d087660c55b298f0a2884de7a324489c2129bf064736f6c634300060c0033",
  "linkReferences": {},
  "deployedLinkReferences": {}
}