{
  "_format": "hh-sol-artifact-1",
  "contractName": "Tomb",
  "sourceName": "contracts/Tomb.sol",
  "abi": [
    {
      "inputs": [
        {
          "internalType": "uint256",
          "name": "_taxRate",
          "type": "uint256"
        },
        {
          "internalType": "address",
          "name": "_taxCollectorAddress",
          "type": "address"
        }
      ],
      "stateMutability": "nonpayable",
      "type": "constructor"
    },
    {
      "anonymous": false,
      "inputs": [
        {
          "indexed": true,
          "internalType": "address",
          "name": "owner",
          "type": "address"
        },
        {
          "indexed": true,
          "internalType": "address",
          "name": "spender",
          "type": "address"
        },
        {
          "indexed": false,
          "internalType": "uint256",
          "name": "value",
          "type": "uint256"
        }
      ],
      "name": "Approval",
      "type": "event"
    },
    {
      "anonymous": false,
      "inputs": [
        {
          "indexed": true,
          "internalType": "address",
          "name": "previousOperator",
          "type": "address"
        },
        {
          "indexed": true,
          "internalType": "address",
          "name": "newOperator",
          "type": "address"
        }
      ],
      "name": "OperatorTransferred",
      "type": "event"
    },
    {
      "anonymous": false,
      "inputs": [
        {
          "indexed": true,
          "internalType": "address",
          "name": "previousOwner",
          "type": "address"
        },
        {
          "indexed": true,
          "internalType": "address",
          "name": "newOwner",
          "type": "address"
        }
      ],
      "name": "OwnershipTransferred",
      "type": "event"
    },
    {
      "anonymous": false,
      "inputs": [
        {
          "indexed": false,
          "internalType": "address",
          "name": "oldAddress",
          "type": "address"
        },
        {
          "indexed": false,
          "internalType": "address",
          "name": "newAddress",
          "type": "address"
        }
      ],
      "name": "TaxOfficeTransferred",
      "type": "event"
    },
    {
      "anonymous": false,
      "inputs": [
        {
          "indexed": true,
          "internalType": "address",
          "name": "from",
          "type": "address"
        },
        {
          "indexed": true,
          "internalType": "address",
          "name": "to",
          "type": "address"
        },
        {
          "indexed": false,
          "internalType": "uint256",
          "name": "value",
          "type": "uint256"
        }
      ],
      "name": "Transfer",
      "type": "event"
    },
    {
      "inputs": [],
      "name": "INITIAL_AIRDROP_WALLET_DISTRIBUTION",
      "outputs": [
        {
          "internalType": "uint256",
          "name": "",
          "type": "uint256"
        }
      ],
      "stateMutability": "view",
      "type": "function"
    },
    {
      "inputs": [],
      "name": "INITIAL_GENESIS_POOL_DISTRIBUTION",
      "outputs": [
        {
          "internalType": "uint256",
          "name": "",
          "type": "uint256"
        }
      ],
      "stateMutability": "view",
      "type": "function"
    },
    {
      "inputs": [],
      "name": "INITIAL_TOMB_POOL_DISTRIBUTION",
      "outputs": [
        {
          "internalType": "uint256",
          "name": "",
          "type": "uint256"
        }
      ],
      "stateMutability": "view",
      "type": "function"
    },
    {
      "inputs": [
        {
          "internalType": "address",
          "name": "owner",
          "type": "address"
        },
        {
          "internalType": "address",
          "name": "spender",
          "type": "address"
        }
      ],
      "name": "allowance",
      "outputs": [
        {
          "internalType": "uint256",
          "name": "",
          "type": "uint256"
        }
      ],
      "stateMutability": "view",
      "type": "function"
    },
    {
      "inputs": [
        {
          "internalType": "address",
          "name": "spender",
          "type": "address"
        },
        {
          "internalType": "uint256",
          "name": "amount",
          "type": "uint256"
        }
      ],
      "name": "approve",
      "outputs": [
        {
          "internalType": "bool",
          "name": "",
          "type": "bool"
        }
      ],
      "stateMutability": "nonpayable",
      "type": "function"
    },
    {
      "inputs": [],
      "name": "autoCalculateTax",
      "outputs": [
        {
          "internalType": "bool",
          "name": "",
          "type": "bool"
        }
      ],
      "stateMutability": "view",
      "type": "function"
    },
    {
      "inputs": [
        {
          "internalType": "address",
          "name": "account",
          "type": "address"
        }
      ],
      "name": "balanceOf",
      "outputs": [
        {
          "internalType": "uint256",
          "name": "",
          "type": "uint256"
        }
      ],
      "stateMutability": "view",
      "type": "function"
    },
    {
      "inputs": [
        {
          "internalType": "uint256",
          "name": "amount",
          "type": "uint256"
        }
      ],
      "name": "burn",
      "outputs": [],
      "stateMutability": "nonpayable",
      "type": "function"
    },
    {
      "inputs": [
        {
          "internalType": "address",
          "name": "account",
          "type": "address"
        },
        {
          "internalType": "uint256",
          "name": "amount",
          "type": "uint256"
        }
      ],
      "name": "burnFrom",
      "outputs": [],
      "stateMutability": "nonpayable",
      "type": "function"
    },
    {
      "inputs": [],
      "name": "burnThreshold",
      "outputs": [
        {
          "internalType": "uint256",
          "name": "",
          "type": "uint256"
        }
      ],
      "stateMutability": "view",
      "type": "function"
    },
    {
      "inputs": [],
      "name": "decimals",
      "outputs": [
        {
          "internalType": "uint8",
          "name": "",
          "type": "uint8"
        }
      ],
      "stateMutability": "view",
      "type": "function"
    },
    {
      "inputs": [
        {
          "internalType": "address",
          "name": "spender",
          "type": "address"
        },
        {
          "internalType": "uint256",
          "name": "subtractedValue",
          "type": "uint256"
        }
      ],
      "name": "decreaseAllowance",
      "outputs": [
        {
          "internalType": "bool",
          "name": "",
          "type": "bool"
        }
      ],
      "stateMutability": "nonpayable",
      "type": "function"
    },
    {
      "inputs": [],
      "name": "disableAutoCalculateTax",
      "outputs": [],
      "stateMutability": "nonpayable",
      "type": "function"
    },
    {
      "inputs": [
        {
          "internalType": "address",
          "name": "_genesisPool",
          "type": "address"
        }
      ],
      "name": "distributeReward",
      "outputs": [],
      "stateMutability": "nonpayable",
      "type": "function"
    },
    {
      "inputs": [],
      "name": "enableAutoCalculateTax",
      "outputs": [],
      "stateMutability": "nonpayable",
      "type": "function"
    },
    {
      "inputs": [
        {
          "internalType": "address",
          "name": "_address",
          "type": "address"
        }
      ],
      "name": "excludeAddress",
      "outputs": [
        {
          "internalType": "bool",
          "name": "",
          "type": "bool"
        }
      ],
      "stateMutability": "nonpayable",
      "type": "function"
    },
    {
      "inputs": [
        {
          "internalType": "address",
          "name": "",
          "type": "address"
        }
      ],
      "name": "excludedAddresses",
      "outputs": [
        {
          "internalType": "bool",
          "name": "",
          "type": "bool"
        }
      ],
      "stateMutability": "view",
      "type": "function"
    },
    {
      "inputs": [],
      "name": "getTaxTiersRatesCount",
      "outputs": [
        {
          "internalType": "uint256",
          "name": "count",
          "type": "uint256"
        }
      ],
      "stateMutability": "view",
      "type": "function"
    },
    {
      "inputs": [],
      "name": "getTaxTiersTwapsCount",
      "outputs": [
        {
          "internalType": "uint256",
          "name": "count",
          "type": "uint256"
        }
      ],
      "stateMutability": "view",
      "type": "function"
    },
    {
      "inputs": [
        {
          "internalType": "contract IERC20",
          "name": "_token",
          "type": "address"
        },
        {
          "internalType": "uint256",
          "name": "_amount",
          "type": "uint256"
        },
        {
          "internalType": "address",
          "name": "_to",
          "type": "address"
        }
      ],
      "name": "governanceRecoverUnsupported",
      "outputs": [],
      "stateMutability": "nonpayable",
      "type": "function"
    },
    {
      "inputs": [
        {
          "internalType": "address",
          "name": "_address",
          "type": "address"
        }
      ],
      "name": "includeAddress",
      "outputs": [
        {
          "internalType": "bool",
          "name": "",
          "type": "bool"
        }
      ],
      "stateMutability": "nonpayable",
      "type": "function"
    },
    {
      "inputs": [
        {
          "internalType": "address",
          "name": "spender",
          "type": "address"
        },
        {
          "internalType": "uint256",
          "name": "addedValue",
          "type": "uint256"
        }
      ],
      "name": "increaseAllowance",
      "outputs": [
        {
          "internalType": "bool",
          "name": "",
          "type": "bool"
        }
      ],
      "stateMutability": "nonpayable",
      "type": "function"
    },
    {
      "inputs": [
        {
          "internalType": "address",
          "name": "_address",
          "type": "address"
        }
      ],
      "name": "isAddressExcluded",
      "outputs": [
        {
          "internalType": "bool",
          "name": "",
          "type": "bool"
        }
      ],
      "stateMutability": "view",
      "type": "function"
    },
    {
      "inputs": [],
      "name": "isOperator",
      "outputs": [
        {
          "internalType": "bool",
          "name": "",
          "type": "bool"
        }
      ],
      "stateMutability": "view",
      "type": "function"
    },
    {
      "inputs": [
        {
          "internalType": "address",
          "name": "recipient_",
          "type": "address"
        },
        {
          "internalType": "uint256",
          "name": "amount_",
          "type": "uint256"
        }
      ],
      "name": "mint",
      "outputs": [
        {
          "internalType": "bool",
          "name": "",
          "type": "bool"
        }
      ],
      "stateMutability": "nonpayable",
      "type": "function"
    },
    {
      "inputs": [],
      "name": "name",
      "outputs": [
        {
          "internalType": "string",
          "name": "",
          "type": "string"
        }
      ],
      "stateMutability": "view",
      "type": "function"
    },
    {
      "inputs": [],
      "name": "operator",
      "outputs": [
        {
          "internalType": "address",
          "name": "",
          "type": "address"
        }
      ],
      "stateMutability": "view",
      "type": "function"
    },
    {
      "inputs": [],
      "name": "owner",
      "outputs": [
        {
          "internalType": "address",
          "name": "",
          "type": "address"
        }
      ],
      "stateMutability": "view",
      "type": "function"
    },
    {
      "inputs": [],
      "name": "renounceOwnership",
      "outputs": [],
      "stateMutability": "nonpayable",
      "type": "function"
    },
    {
      "inputs": [],
      "name": "rewardPoolDistributed",
      "outputs": [
        {
          "internalType": "bool",
          "name": "",
          "type": "bool"
        }
      ],
      "stateMutability": "view",
      "type": "function"
    },
    {
      "inputs": [
        {
          "internalType": "uint256",
          "name": "_burnThreshold",
          "type": "uint256"
        }
      ],
      "name": "setBurnThreshold",
      "outputs": [
        {
          "internalType": "bool",
          "name": "",
          "type": "bool"
        }
      ],
      "stateMutability": "nonpayable",
      "type": "function"
    },
    {
      "inputs": [
        {
          "internalType": "address",
          "name": "_taxCollectorAddress",
          "type": "address"
        }
      ],
      "name": "setTaxCollectorAddress",
      "outputs": [],
      "stateMutability": "nonpayable",
      "type": "function"
    },
    {
      "inputs": [
        {
          "internalType": "address",
          "name": "_taxOffice",
          "type": "address"
        }
      ],
      "name": "setTaxOffice",
      "outputs": [],
      "stateMutability": "nonpayable",
      "type": "function"
    },
    {
      "inputs": [
        {
          "internalType": "uint256",
          "name": "_taxRate",
          "type": "uint256"
        }
      ],
      "name": "setTaxRate",
      "outputs": [],
      "stateMutability": "nonpayable",
      "type": "function"
    },
    {
      "inputs": [
        {
          "internalType": "uint8",
          "name": "_index",
          "type": "uint8"
        },
        {
          "internalType": "uint256",
          "name": "_value",
          "type": "uint256"
        }
      ],
      "name": "setTaxTiersRate",
      "outputs": [
        {
          "internalType": "bool",
          "name": "",
          "type": "bool"
        }
      ],
      "stateMutability": "nonpayable",
      "type": "function"
    },
    {
      "inputs": [
        {
          "internalType": "uint8",
          "name": "_index",
          "type": "uint8"
        },
        {
          "internalType": "uint256",
          "name": "_value",
          "type": "uint256"
        }
      ],
      "name": "setTaxTiersTwap",
      "outputs": [
        {
          "internalType": "bool",
          "name": "",
          "type": "bool"
        }
      ],
      "stateMutability": "nonpayable",
      "type": "function"
    },
    {
      "inputs": [
        {
          "internalType": "address",
          "name": "_tombOracle",
          "type": "address"
        }
      ],
      "name": "setTombOracle",
      "outputs": [],
      "stateMutability": "nonpayable",
      "type": "function"
    },
    {
      "inputs": [],
      "name": "symbol",
      "outputs": [
        {
          "internalType": "string",
          "name": "",
          "type": "string"
        }
      ],
      "stateMutability": "view",
      "type": "function"
    },
    {
      "inputs": [],
      "name": "taxCollectorAddress",
      "outputs": [
        {
          "internalType": "address",
          "name": "",
          "type": "address"
        }
      ],
      "stateMutability": "view",
      "type": "function"
    },
    {
      "inputs": [],
      "name": "taxOffice",
      "outputs": [
        {
          "internalType": "address",
          "name": "",
          "type": "address"
        }
      ],
      "stateMutability": "view",
      "type": "function"
    },
    {
      "inputs": [],
      "name": "taxRate",
      "outputs": [
        {
          "internalType": "uint256",
          "name": "",
          "type": "uint256"
        }
      ],
      "stateMutability": "view",
      "type": "function"
    },
    {
      "inputs": [
        {
          "internalType": "uint256",
          "name": "",
          "type": "uint256"
        }
      ],
      "name": "taxTiersRates",
      "outputs": [
        {
          "internalType": "uint256",
          "name": "",
          "type": "uint256"
        }
      ],
      "stateMutability": "view",
      "type": "function"
    },
    {
      "inputs": [
        {
          "internalType": "uint256",
          "name": "",
          "type": "uint256"
        }
      ],
      "name": "taxTiersTwaps",
      "outputs": [
        {
          "internalType": "uint256",
          "name": "",
          "type": "uint256"
        }
      ],
      "stateMutability": "view",
      "type": "function"
    },
    {
      "inputs": [],
      "name": "tombOracle",
      "outputs": [
        {
          "internalType": "address",
          "name": "",
          "type": "address"
        }
      ],
      "stateMutability": "view",
      "type": "function"
    },
    {
      "inputs": [],
      "name": "totalSupply",
      "outputs": [
        {
          "internalType": "uint256",
          "name": "",
          "type": "uint256"
        }
      ],
      "stateMutability": "view",
      "type": "function"
    },
    {
      "inputs": [
        {
          "internalType": "address",
          "name": "recipient",
          "type": "address"
        },
        {
          "internalType": "uint256",
          "name": "amount",
          "type": "uint256"
        }
      ],
      "name": "transfer",
      "outputs": [
        {
          "internalType": "bool",
          "name": "",
          "type": "bool"
        }
      ],
      "stateMutability": "nonpayable",
      "type": "function"
    },
    {
      "inputs": [
        {
          "internalType": "address",
          "name": "sender",
          "type": "address"
        },
        {
          "internalType": "address",
          "name": "recipient",
          "type": "address"
        },
        {
          "internalType": "uint256",
          "name": "amount",
          "type": "uint256"
        }
      ],
      "name": "transferFrom",
      "outputs": [
        {
          "internalType": "bool",
          "name": "",
          "type": "bool"
        }
      ],
      "stateMutability": "nonpayable",
      "type": "function"
    },
    {
      "inputs": [
        {
          "internalType": "address",
          "name": "newOperator_",
          "type": "address"
        }
      ],
      "name": "transferOperator",
      "outputs": [],
      "stateMutability": "nonpayable",
      "type": "function"
    },
    {
      "inputs": [
        {
          "internalType": "address",
          "name": "newOwner",
          "type": "address"
        }
      ],
      "name": "transferOwnership",
      "outputs": [],
      "stateMutability": "nonpayable",
      "type": "function"
    }
  ],
  "bytecode": "0x6006805460ff60a01b19169055670f43fc2c04ee0000600a819055610240604052600060809081526706f05b59d3b2000060a052670853a0d2313c000060c0526709b6e64a8ec6000060e052670b1a2bc2ec50000061010052670c7d713b49da000061012052670d2f13f7789f000061014052670de0b6b3a764000061016052670e92596fd6290000610180526101a0919091526710a741a4627800006101c05267120a871cc00200006101e05267136dcc951d8c0000610200526714d1120d7b16000061022052620000d790600c90600e6200060c565b50604080516101c0810182526107d0815261076c6020820152610708918101919091526106a4606082015261064060808201526105dc60a0820181905260c0820181905260e0820181905261010082015261057861012082015261038461014082015261019061016082015260c861018082015260646101a08201526200016390600d90600e62000667565b503480156200017157600080fd5b5060405162002f1338038062002f13833981810160405260408110156200019757600080fd5b50805160209182015160408051808201825260048152632ba7a6a160e11b8186019081528251808401909352600a8352692ba7a6a1102a37b5b2b760b11b958301959095528051939492939092620001f39160039190620006ab565b50805162000209906004906020840190620006ab565b50506005805460ff191660121790555060006200022562000373565b60058054610100600160a81b0319166101006001600160a01b03841690810291909117909155604051919250906000907f8be0079c531659141344cd1fd0a4f28419497f9722a3daafe3b4186f6b6457e0908290a3506200028562000373565b600680546001600160a01b0319166001600160a01b0392831617908190556040519116906000907f74da04524d50c64947f5dd5381ef1a4dca5cba8ed1d816243f9e48aa0b5617ed908290a3612710821062000328576040805162461bcd60e51b815260206004820152601b60248201527f74617820657175616c206f722062696767657220746f20313030250000000000604482015290519081900360640190fd5b620003333062000377565b506200034833670de0b6b3a76400006200046e565b600991909155600b80546001600160a01b0319166001600160a01b0390921691909117905562000735565b3390565b6000620003836200057d565b806200039957506008546001600160a01b031633145b620003d65760405162461bcd60e51b815260040180806020018281038252602c81526020018062002ee7602c913960400191505060405180910390fd5b6001600160a01b0382166000908152600e602052604090205460ff161562000445576040805162461bcd60e51b815260206004820152601960248201527f616464726573732063616e2774206265206578636c7564656400000000000000604482015290519081900360640190fd5b506001600160a01b03166000908152600e60205260409020805460ff1916600190811790915590565b6001600160a01b038216620004ca576040805162461bcd60e51b815260206004820152601f60248201527f45524332303a206d696e7420746f20746865207a65726f206164647265737300604482015290519081900360640190fd5b620004d860008383620005a5565b620004f481600254620005aa60201b620019f21790919060201c565b6002556001600160a01b0382166000908152602081815260409091205462000527918390620019f2620005aa821b17901c565b6001600160a01b0383166000818152602081815260408083209490945583518581529351929391927fddf252ad1be2c89b69c2b068fc378daa952ba7f163c4a11628f55a4df523b3ef9281900390910190a35050565b6006546000906001600160a01b03166200059662000373565b6001600160a01b031614905090565b505050565b60008282018381101562000605576040805162461bcd60e51b815260206004820152601b60248201527f536166654d6174683a206164646974696f6e206f766572666c6f770000000000604482015290519081900360640190fd5b9392505050565b82805482825590600052602060002090810192821562000655579160200282015b828111156200065557825182906001600160401b03169055916020019190600101906200062d565b50620006639291506200071e565b5090565b82805482825590600052602060002090810192821562000655579160200282015b8281111562000655578251829061ffff1690559160200191906001019062000688565b828054600181600116156101000203166002900490600052602060002090601f016020900481019282601f10620006ee57805160ff191683800117855562000655565b8280016001018555821562000655579182015b828111156200065557825182559160200191906001019062000701565b5b808211156200066357600081556001016200071f565b6127a280620007456000396000f3fe608060405234801561001057600080fd5b50600436106102bb5760003560e01c806370a0823111610182578063a6431bba116100e9578063dd62ed3e116100a2578063f2fde38b1161007c578063f2fde38b14610822578063f774110314610848578063ff87fc7c14610850578063ffa8226e146103a5576102bb565b8063dd62ed3e146107c6578063ebca1bd9146107f4578063ee2a95351461081a576102bb565b8063a6431bba14610721578063a9059cbb14610729578063b87c5a4a14610755578063c3bdf6131461077b578063c6d69a3014610783578063cf011b26146107a0576102bb565b80638da5cb5b1161013b5780638da5cb5b1461069a57806393995d4b146106a257806395d89b41146106c85780639662676c146106d05780639d6b5f21146106d8578063a457c2d7146106f5576102bb565b806370a082311461060a578063715018a61461063057806375be5ae114610638578063771a3a1d1461065e57806379cc6790146106665780638d3cc81814610692576102bb565b806340c10f191161022657806354575af4116101df57806354575af41461055b578063570ca735146105915780635c29908d1461059957806365bbacd9146105b657806366206ce9146105be57806369356d47146105e4576102bb565b806340c10f19146104dd57806342966c681461050957806342c6b4f1146105265780634456eda2146105435780634e20a02c1461054b5780634f6d38d014610553576102bb565b806329605e771161027857806329605e77146103fd578063313ce567146104235780633758e6ce1461044157806339509351146104675780633e5f13d4146104935780633f07d76a146104b7576102bb565b806306fdde03146102c0578063092193ab1461033d578063095ea7b3146103655780631017bc36146103a557806318160ddd146103bf57806323b872dd146103c7575b600080fd5b6102c8610858565b6040805160208082528351818301528351919283929083019185019080838360005b838110156103025781810151838201526020016102ea565b50505050905090810190601f16801561032f5780820380516001836020036101000a031916815260200191505b509250505060405180910390f35b6103636004803603602081101561035357600080fd5b50356001600160a01b03166108ef565b005b6103916004803603604081101561037b57600080fd5b506001600160a01b038135169060200135610a0c565b604080519115158252519081900360200190f35b6103ad610a2a565b60408051918252519081900360200190f35b6103ad610a2f565b610391600480360360608110156103dd57600080fd5b506001600160a01b03813581169160208101359091169060400135610a35565b6103636004803603602081101561041357600080fd5b50356001600160a01b0316610b10565b61042b610b8d565b6040805160ff9092168252519081900360200190f35b6103916004803603602081101561045757600080fd5b50356001600160a01b0316610b96565b6103916004803603604081101561047d57600080fd5b506001600160a01b038135169060200135610c8b565b61049b610cd9565b604080516001600160a01b039092168252519081900360200190f35b610363600480360360208110156104cd57600080fd5b50356001600160a01b0316610ce8565b610391600480360360408110156104f357600080fd5b506001600160a01b038135169060200135610def565b6103636004803603602081101561051f57600080fd5b5035610e69565b6103ad6004803603602081101561053c57600080fd5b5035610e72565b610391610e90565b6103ad610eb6565b6103ad610ec4565b6103636004803603606081101561057157600080fd5b506001600160a01b03813581169160208101359160409091013516610eca565b61049b610f9b565b6103ad600480360360208110156105af57600080fd5b5035610faa565b610363610fb7565b610391600480360360408110156105d457600080fd5b5060ff8135169060200135611013565b610363600480360360208110156105fa57600080fd5b50356001600160a01b0316611149565b6103ad6004803603602081101561062057600080fd5b50356001600160a01b03166111fd565b610363611218565b6103636004803603602081101561064e57600080fd5b50356001600160a01b03166112dc565b6103ad61139b565b6103636004803603604081101561067c57600080fd5b506001600160a01b0381351690602001356113a1565b6103916113f8565b61049b611408565b610391600480360360208110156106b857600080fd5b50356001600160a01b031661141c565b6102c8611508565b610391611569565b610391600480360360208110156106ee57600080fd5b5035611579565b6103916004803603604081101561070b57600080fd5b506001600160a01b0381351690602001356115d2565b6103ad61163a565b6103916004803603604081101561073f57600080fd5b506001600160a01b038135169060200135611640565b6103916004803603604081101561076b57600080fd5b5060ff8135169060200135611654565b61049b6116fd565b6103636004803603602081101561079957600080fd5b503561170c565b610391600480360360208110156107b657600080fd5b50356001600160a01b03166117fd565b6103ad600480360360408110156107dc57600080fd5b506001600160a01b0381358116916020013516611812565b6103916004803603602081101561080a57600080fd5b50356001600160a01b031661183d565b6103ad61185b565b6103636004803603602081101561083857600080fd5b50356001600160a01b0316611861565b61049b611981565b610363611990565b60038054604080516020601f60026000196101006001881615020190951694909404938401819004810282018101909252828152606093909290918301828280156108e45780601f106108b9576101008083540402835291602001916108e4565b820191906000526020600020905b8154815290600101906020018083116108c757829003601f168201915b505050505090505b90565b6006546001600160a01b031633146109385760405162461bcd60e51b81526004018080602001828103825260248152602001806125f26024913960400191505060405180910390fd5b600654600160a01b900460ff1615610997576040805162461bcd60e51b815260206004820152601860248201527f6f6e6c792063616e2064697374726962757465206f6e63650000000000000000604482015290519081900360640190fd5b6001600160a01b0381166109e2576040805162461bcd60e51b815260206004820152600d60248201526c0857d9d95b995cda5cd41bdbdb609a1b604482015290519081900360640190fd5b6006805460ff60a01b1916600160a01b179055610a098169054b40b1f852bda00000611a53565b50565b6000610a20610a19611b43565b8484611b47565b5060015b92915050565b600081565b60025490565b600b5460009081908190600160a01b900460ff1615610a76576000610a58611c33565b9050610a6381611d07565b9250600a54811015610a7457600191505b505b811580610a9b57506001600160a01b0386166000908152600e602052604090205460ff165b15610ab057610aab868686611e15565b610abe565b610abc86868684611f70565b505b610b0486610aca611b43565b610aff8760405180606001604052806028815260200161257860289139610af88c610af3611b43565b611812565b9190611fe9565b611b47565b50600195945050505050565b610b18611b43565b6001600160a01b0316610b29611408565b6001600160a01b031614610b84576040805162461bcd60e51b815260206004820181905260248201527f4f776e61626c653a2063616c6c6572206973206e6f7420746865206f776e6572604482015290519081900360640190fd5b610a0981612080565b60055460ff1690565b6000610ba0610e90565b80610bb557506008546001600160a01b031633145b610bf05760405162461bcd60e51b815260040180806020018281038252602c8152602001806126cc602c913960400191505060405180910390fd5b6001600160a01b0382166000908152600e602052604090205460ff1615610c5e576040805162461bcd60e51b815260206004820152601960248201527f616464726573732063616e2774206265206578636c7564656400000000000000604482015290519081900360640190fd5b506001600160a01b0381166000908152600e60205260409020805460ff191660019081179091555b919050565b6000610a20610c98611b43565b84610aff8560016000610ca9611b43565b6001600160a01b03908116825260208083019390935260409182016000908120918c1681529252902054906119f2565b6008546001600160a01b031681565b610cf0610e90565b80610d0557506008546001600160a01b031633145b610d405760405162461bcd60e51b815260040180806020018281038252602c8152602001806126cc602c913960400191505060405180910390fd5b6001600160a01b038116610d855760405162461bcd60e51b81526004018080602001828103825260268152602001806125046026913960400191505060405180910390fd5b600854604080516001600160a01b039283168152918316602083015280517f75237613d1cfb394eb7979839ecbeacaca4592ef0cf96791979625803948a6019281900390910190a1600880546001600160a01b0319166001600160a01b0392909216919091179055565b6006546000906001600160a01b03163314610e3b5760405162461bcd60e51b81526004018080602001828103825260248152602001806125f26024913960400191505060405180910390fd5b6000610e46846111fd565b9050610e528484611a53565b6000610e5d856111fd565b91909111949350505050565b610a098161211d565b600c8181548110610e7f57fe5b600091825260209091200154905081565b6006546000906001600160a01b0316610ea7611b43565b6001600160a01b031614905090565b69054b40b1f852bda0000081565b600a5481565b6006546001600160a01b03163314610f135760405162461bcd60e51b81526004018080602001828103825260248152602001806125f26024913960400191505060405180910390fd5b826001600160a01b031663a9059cbb82846040518363ffffffff1660e01b815260040180836001600160a01b0316815260200182815260200192505050602060405180830381600087803b158015610f6a57600080fd5b505af1158015610f7e573d6000803e3d6000fd5b505050506040513d6020811015610f9457600080fd5b5050505050565b6006546001600160a01b031690565b600d8181548110610e7f57fe5b6008546001600160a01b03163314611004576040805162461bcd60e51b815260206004820152601c60248201526000805160206124be833981519152604482015290519081900360640190fd5b600b805460ff60a01b19169055565b6008546000906001600160a01b03163314611063576040805162461bcd60e51b815260206004820152601c60248201526000805160206124be833981519152604482015290519081900360640190fd5b61106b61163a565b8360ff16106110ab5760405162461bcd60e51b815260040180806020018281038252602a815260200180612616602a913960400191505060405180910390fd5b60ff8316156110dd57600c6001840360ff16815481106110c757fe5b906000526020600020015482116110dd57600080fd5b6110f060016110ea61163a565b9061212e565b8360ff16101561112357600c8360010160ff168154811061110d57fe5b9060005260206000200154821061112357600080fd5b81600c8460ff168154811061113457fe5b60009182526020909120015550600192915050565b6008546001600160a01b03163314611196576040805162461bcd60e51b815260206004820152601c60248201526000805160206124be833981519152604482015290519081900360640190fd5b6001600160a01b0381166111db5760405162461bcd60e51b815260040180806020018281038252602e8152602001806125a0602e913960400191505060405180910390fd5b600b80546001600160a01b0319166001600160a01b0392909216919091179055565b6001600160a01b031660009081526020819052604090205490565b611220611b43565b6001600160a01b0316611231611408565b6001600160a01b03161461128c576040805162461bcd60e51b815260206004820181905260248201527f4f776e61626c653a2063616c6c6572206973206e6f7420746865206f776e6572604482015290519081900360640190fd5b60055460405160009161010090046001600160a01b0316907f8be0079c531659141344cd1fd0a4f28419497f9722a3daafe3b4186f6b6457e0908390a360058054610100600160a81b0319169055565b6112e4610e90565b806112f957506008546001600160a01b031633145b6113345760405162461bcd60e51b815260040180806020018281038252602c8152602001806126cc602c913960400191505060405180910390fd5b6001600160a01b0381166113795760405162461bcd60e51b81526004018080602001828103825260228152602001806126616022913960400191505060405180910390fd5b600780546001600160a01b0319166001600160a01b0392909216919091179055565b60095481565b6006546001600160a01b031633146113ea5760405162461bcd60e51b81526004018080602001828103825260248152602001806125f26024913960400191505060405180910390fd5b6113f4828261218b565b5050565b600b54600160a01b900460ff1681565b60055461010090046001600160a01b031690565b6000611426610e90565b8061143b57506008546001600160a01b031633145b6114765760405162461bcd60e51b815260040180806020018281038252602c8152602001806126cc602c913960400191505060405180910390fd5b6001600160a01b0382166000908152600e602052604090205460ff166114e3576040805162461bcd60e51b815260206004820152601960248201527f616464726573732063616e277420626520696e636c7564656400000000000000604482015290519081900360640190fd5b506001600160a01b03166000908152600e60205260409020805460ff19169055600190565b60048054604080516020601f60026000196101006001881615020190951694909404938401819004810282018101909252828152606093909290918301828280156108e45780601f106108b9576101008083540402835291602001916108e4565b600654600160a01b900460ff1681565b6008546000906001600160a01b031633146115c9576040805162461bcd60e51b815260206004820152601c60248201526000805160206124be833981519152604482015290519081900360640190fd5b600a9190915590565b6000610a206115df611b43565b84610aff856040518060600160405280602581526020016127486025913960016000611609611b43565b6001600160a01b03908116825260208083019390935260409182016000908120918d16815292529020549190611fe9565b600c5490565b6000610a2061164d611b43565b8484611e15565b6008546000906001600160a01b031633146116a4576040805162461bcd60e51b815260206004820152601c60248201526000805160206124be833981519152604482015290519081900360640190fd5b6116ac61185b565b8360ff16106116ec5760405162461bcd60e51b815260040180806020018281038252602a815260200180612616602a913960400191505060405180910390fd5b81600d8460ff168154811061113457fe5b600b546001600160a01b031681565b6008546001600160a01b03163314611759576040805162461bcd60e51b815260206004820152601c60248201526000805160206124be833981519152604482015290519081900360640190fd5b600b54600160a01b900460ff16156117a25760405162461bcd60e51b81526004018080602001828103825260248152602001806126836024913960400191505060405180910390fd5b61271081106117f8576040805162461bcd60e51b815260206004820152601b60248201527f74617820657175616c206f722062696767657220746f20313030250000000000604482015290519081900360640190fd5b600955565b600e6020526000908152604090205460ff1681565b6001600160a01b03918216600090815260016020908152604080832093909416825291909152205490565b6001600160a01b03166000908152600e602052604090205460ff1690565b600d5490565b611869611b43565b6001600160a01b031661187a611408565b6001600160a01b0316146118d5576040805162461bcd60e51b815260206004820181905260248201527f4f776e61626c653a2063616c6c6572206973206e6f7420746865206f776e6572604482015290519081900360640190fd5b6001600160a01b03811661191a5760405162461bcd60e51b81526004018080602001828103825260268152602001806124766026913960400191505060405180910390fd5b6005546040516001600160a01b0380841692610100900416907f8be0079c531659141344cd1fd0a4f28419497f9722a3daafe3b4186f6b6457e090600090a3600580546001600160a01b0390921661010002610100600160a81b0319909216919091179055565b6007546001600160a01b031681565b6008546001600160a01b031633146119dd576040805162461bcd60e51b815260206004820152601c60248201526000805160206124be833981519152604482015290519081900360640190fd5b600b805460ff60a01b1916600160a01b179055565b600082820183811015611a4c576040805162461bcd60e51b815260206004820152601b60248201527f536166654d6174683a206164646974696f6e206f766572666c6f770000000000604482015290519081900360640190fd5b9392505050565b6001600160a01b038216611aae576040805162461bcd60e51b815260206004820152601f60248201527f45524332303a206d696e7420746f20746865207a65726f206164647265737300604482015290519081900360640190fd5b611aba600083836121d4565b600254611ac790826119f2565b6002556001600160a01b038216600090815260208190526040902054611aed90826119f2565b6001600160a01b0383166000818152602081815260408083209490945583518581529351929391927fddf252ad1be2c89b69c2b068fc378daa952ba7f163c4a11628f55a4df523b3ef9281900390910190a35050565b3390565b6001600160a01b038316611b8c5760405162461bcd60e51b81526004018080602001828103825260248152602001806126f86024913960400191505060405180910390fd5b6001600160a01b038216611bd15760405162461bcd60e51b815260040180806020018281038252602281526020018061249c6022913960400191505060405180910390fd5b6001600160a01b03808416600081815260016020908152604080832094871680845294825291829020859055815185815291517f8c5be1e5ebec7d5bd14f71427d1e84f3dd0314c0f7b2291e5b200ac8c7c3b9259281900390910190a3505050565b60075460408051633ddac95360e01b8152306004820152670de0b6b3a7640000602482015290516000926001600160a01b031691633ddac953916044808301926020929190829003018186803b158015611c8c57600080fd5b505afa925050508015611cb157506040513d6020811015611cac57600080fd5b505160015b611cec5760405162461bcd60e51b815260040180806020018281038252602c81526020018061271c602c913960400191505060405180910390fd5b71ffffffffffffffffffffffffffffffffffff1690506108ec565b600b54600090600160a01b900460ff1615610c86576000611d346001611d2b61163a565b60ff16906121d9565b90505b600c8160ff1681548110611d4757fe5b90600052602060002001548310611e0c57612710600d8260ff1681548110611d6b57fe5b906000526020600020015410611dc8576040805162461bcd60e51b815260206004820152601b60248201527f74617820657175616c206f722062696767657220746f20313030250000000000604482015290519081900360640190fd5b600d8160ff1681548110611dd857fe5b9060005260206000200154600981905550600d8160ff1681548110611df957fe5b9060005260206000200154915050610c86565b60001901611d37565b6001600160a01b038316611e5a5760405162461bcd60e51b81526004018080602001828103825260258152602001806126a76025913960400191505060405180910390fd5b6001600160a01b038216611e9f5760405162461bcd60e51b81526004018080602001828103825260238152602001806124316023913960400191505060405180910390fd5b611eaa8383836121d4565b611ee7816040518060600160405280602681526020016124de602691396001600160a01b0386166000908152602081905260409020549190611fe9565b6001600160a01b038085166000908152602081905260408082209390935590841681522054611f1690826119f2565b6001600160a01b038084166000818152602081815260409182902094909455805185815290519193928716927fddf252ad1be2c89b69c2b068fc378daa952ba7f163c4a11628f55a4df523b3ef92918290030190a3505050565b600080611f94612710611f8e6009548761221b90919063ffffffff16565b90612274565b90506000611fa2858361212e565b90508315611fb957611fb4878361218b565b611fd1565b600b54611fd19088906001600160a01b031684611e15565b611fdc878783611e15565b5060019695505050505050565b600081848411156120785760405162461bcd60e51b81526004018080602001828103825283818151815260200191508051906020019080838360005b8381101561203d578181015183820152602001612025565b50505050905090810190601f16801561206a5780820380516001836020036101000a031916815260200191505b509250505060405180910390fd5b505050900390565b6001600160a01b0381166120c55760405162461bcd60e51b815260040180806020018281038252602d81526020018061252a602d913960400191505060405180910390fd5b6040516001600160a01b038216906000907f74da04524d50c64947f5dd5381ef1a4dca5cba8ed1d816243f9e48aa0b5617ed908290a3600680546001600160a01b0319166001600160a01b0392909216919091179055565b610a09612128611b43565b826122db565b600082821115612185576040805162461bcd60e51b815260206004820152601e60248201527f536166654d6174683a207375627472616374696f6e206f766572666c6f770000604482015290519081900360640190fd5b50900390565b60006121b6826040518060600160405280602481526020016125ce60249139610af886610af3611b43565b90506121ca836121c4611b43565b83611b47565b6121d483836122db565b505050565b6000611a4c83836040518060400160405280601e81526020017f536166654d6174683a207375627472616374696f6e206f766572666c6f7700008152506123d7565b60008261222a57506000610a24565b8282028284828161223757fe5b0414611a4c5760405162461bcd60e51b81526004018080602001828103825260218152602001806125576021913960400191505060405180910390fd5b60008082116122ca576040805162461bcd60e51b815260206004820152601a60248201527f536166654d6174683a206469766973696f6e206279207a65726f000000000000604482015290519081900360640190fd5b8183816122d357fe5b049392505050565b6001600160a01b0382166123205760405162461bcd60e51b81526004018080602001828103825260218152602001806126406021913960400191505060405180910390fd5b61232c826000836121d4565b61236981604051806060016040528060228152602001612454602291396001600160a01b0385166000908152602081905260409020549190611fe9565b6001600160a01b03831660009081526020819052604090205560025461238f908261212e565b6002556040805182815290516000916001600160a01b038516917fddf252ad1be2c89b69c2b068fc378daa952ba7f163c4a11628f55a4df523b3ef9181900360200190a35050565b60008360ff168360ff16111582906120785760405162461bcd60e51b815260206004820181815283516024840152835190928392604490910191908501908083836000831561203d57818101518382015260200161202556fe45524332303a207472616e7366657220746f20746865207a65726f206164647265737345524332303a206275726e20616d6f756e7420657863656564732062616c616e63654f776e61626c653a206e6577206f776e657220697320746865207a65726f206164647265737345524332303a20617070726f766520746f20746865207a65726f206164647265737343616c6c6572206973206e6f742074686520746178206f66666963650000000045524332303a207472616e7366657220616d6f756e7420657863656564732062616c616e6365746178206f666669636520616464726573732063616e6e6f74206265203020616464726573736f70657261746f723a207a65726f206164647265737320676976656e20666f72206e6577206f70657261746f72536166654d6174683a206d756c7469706c69636174696f6e206f766572666c6f7745524332303a207472616e7366657220616d6f756e74206578636565647320616c6c6f77616e636574617820636f6c6c6563746f722061646472657373206d757374206265206e6f6e2d7a65726f206164647265737345524332303a206275726e20616d6f756e74206578636565647320616c6c6f77616e63656f70657261746f723a2063616c6c6572206973206e6f7420746865206f70657261746f72496e6465782068617320746f206c6f776572207468616e20636f756e74206f662074617820746965727345524332303a206275726e2066726f6d20746865207a65726f20616464726573736f7261636c6520616464726573732063616e6e6f74206265203020616464726573736175746f2063616c63756c617465207461782063616e6e6f7420626520656e61626c656445524332303a207472616e736665722066726f6d20746865207a65726f206164647265737343616c6c6572206973206e6f7420746865206f70657261746f72206f722074686520746178206f666669636545524332303a20617070726f76652066726f6d20746865207a65726f2061646472657373546f6d623a206661696c656420746f20666574636820544f4d422070726963652066726f6d204f7261636c6545524332303a2064656372656173656420616c6c6f77616e63652062656c6f77207a65726fa26469706673582212201464011d6abec05b9284f96232dc784f2df419b677c16d5ae335d2792a5f102364736f6c634300060c003343616c6c6572206973206e6f7420746865206f70657261746f72206f722074686520746178206f6666696365",
  "linkReferences": {},
  "deployedLinkReferences": {}
}