{
  "_format": "hh-sol-artifact-1",
  "contractName": "Treasury",
  "sourceName": "contracts/Treasury.sol",
  "abi": [
    {
      "anonymous": false,
      "inputs": [
        {
          "indexed": true,
          "internalType": "address",
          "name": "from",
          "type": "address"
        },
        {
          "indexed": false,
          "internalType": "uint256",
          "name": "tombAmount",
          "type": "uint256"
        },
        {
          "indexed": false,
          "internalType": "uint256",
          "name": "bondAmount",
          "type": "uint256"
        }
      ],
      "name": "BoughtBonds",
      "type": "event"
    },
    {
      "anonymous": false,
      "inputs": [
        {
          "indexed": true,
          "internalType": "address",
          "name": "from",
          "type": "address"
        },
        {
          "indexed": false,
          "internalType": "uint256",
          "name": "bondAmount",
          "type": "uint256"
        }
      ],
      "name": "BurnedBonds",
      "type": "event"
    },
    {
      "anonymous": false,
      "inputs": [
        {
          "indexed": false,
          "internalType": "uint256",
          "name": "timestamp",
          "type": "uint256"
        },
        {
          "indexed": false,
          "internalType": "uint256",
          "name": "seigniorage",
          "type": "uint256"
        }
      ],
      "name": "DaoFundFunded",
      "type": "event"
    },
    {
      "anonymous": false,
      "inputs": [
        {
          "indexed": false,
          "internalType": "uint256",
          "name": "timestamp",
          "type": "uint256"
        },
        {
          "indexed": false,
          "internalType": "uint256",
          "name": "seigniorage",
          "type": "uint256"
        }
      ],
      "name": "DevFundFunded",
      "type": "event"
    },
    {
      "anonymous": false,
      "inputs": [
        {
          "indexed": true,
          "internalType": "address",
          "name": "executor",
          "type": "address"
        },
        {
          "indexed": false,
          "internalType": "uint256",
          "name": "at",
          "type": "uint256"
        }
      ],
      "name": "Initialized",
      "type": "event"
    },
    {
      "anonymous": false,
      "inputs": [
        {
          "indexed": false,
          "internalType": "uint256",
          "name": "timestamp",
          "type": "uint256"
        },
        {
          "indexed": false,
          "internalType": "uint256",
          "name": "seigniorage",
          "type": "uint256"
        }
      ],
      "name": "MasonryFunded",
      "type": "event"
    },
    {
      "anonymous": false,
      "inputs": [
        {
          "indexed": true,
          "internalType": "address",
          "name": "from",
          "type": "address"
        },
        {
          "indexed": false,
          "internalType": "uint256",
          "name": "tombAmount",
          "type": "uint256"
        },
        {
          "indexed": false,
          "internalType": "uint256",
          "name": "bondAmount",
          "type": "uint256"
        }
      ],
      "name": "RedeemedBonds",
      "type": "event"
    },
    {
      "anonymous": false,
      "inputs": [
        {
          "indexed": false,
          "internalType": "uint256",
          "name": "timestamp",
          "type": "uint256"
        },
        {
          "indexed": false,
          "internalType": "uint256",
          "name": "seigniorage",
          "type": "uint256"
        }
      ],
      "name": "TreasuryFunded",
      "type": "event"
    },
    {
      "inputs": [],
      "name": "PERIOD",
      "outputs": [
        {
          "internalType": "uint256",
          "name": "",
          "type": "uint256"
        }
      ],
      "stateMutability": "view",
      "type": "function"
    },
    {
      "inputs": [],
      "name": "allocateSeigniorage",
      "outputs": [],
      "stateMutability": "nonpayable",
      "type": "function"
    },
    {
      "inputs": [],
      "name": "bondDepletionFloorPercent",
      "outputs": [
        {
          "internalType": "uint256",
          "name": "",
          "type": "uint256"
        }
      ],
      "stateMutability": "view",
      "type": "function"
    },
    {
      "inputs": [],
      "name": "bootstrapEpochs",
      "outputs": [
        {
          "internalType": "uint256",
          "name": "",
          "type": "uint256"
        }
      ],
      "stateMutability": "view",
      "type": "function"
    },
    {
      "inputs": [],
      "name": "bootstrapSupplyExpansionPercent",
      "outputs": [
        {
          "internalType": "uint256",
          "name": "",
          "type": "uint256"
        }
      ],
      "stateMutability": "view",
      "type": "function"
    },
    {
      "inputs": [
        {
          "internalType": "uint256",
          "name": "_tombAmount",
          "type": "uint256"
        },
        {
          "internalType": "uint256",
          "name": "targetPrice",
          "type": "uint256"
        }
      ],
      "name": "buyBonds",
      "outputs": [],
      "stateMutability": "nonpayable",
      "type": "function"
    },
    {
      "inputs": [],
      "name": "daoFund",
      "outputs": [
        {
          "internalType": "address",
          "name": "",
          "type": "address"
        }
      ],
      "stateMutability": "view",
      "type": "function"
    },
    {
      "inputs": [],
      "name": "daoFundSharedPercent",
      "outputs": [
        {
          "internalType": "uint256",
          "name": "",
          "type": "uint256"
        }
      ],
      "stateMutability": "view",
      "type": "function"
    },
    {
      "inputs": [],
      "name": "devFund",
      "outputs": [
        {
          "internalType": "address",
          "name": "",
          "type": "address"
        }
      ],
      "stateMutability": "view",
      "type": "function"
    },
    {
      "inputs": [],
      "name": "devFundSharedPercent",
      "outputs": [
        {
          "internalType": "uint256",
          "name": "",
          "type": "uint256"
        }
      ],
      "stateMutability": "view",
      "type": "function"
    },
    {
      "inputs": [],
      "name": "discountPercent",
      "outputs": [
        {
          "internalType": "uint256",
          "name": "",
          "type": "uint256"
        }
      ],
      "stateMutability": "view",
      "type": "function"
    },
    {
      "inputs": [],
      "name": "epoch",
      "outputs": [
        {
          "internalType": "uint256",
          "name": "",
          "type": "uint256"
        }
      ],
      "stateMutability": "view",
      "type": "function"
    },
    {
      "inputs": [],
      "name": "epochSupplyContractionLeft",
      "outputs": [
        {
          "internalType": "uint256",
          "name": "",
          "type": "uint256"
        }
      ],
      "stateMutability": "view",
      "type": "function"
    },
    {
      "inputs": [
        {
          "internalType": "uint256",
          "name": "",
          "type": "uint256"
        }
      ],
      "name": "excludedFromTotalSupply",
      "outputs": [
        {
          "internalType": "address",
          "name": "",
          "type": "address"
        }
      ],
      "stateMutability": "view",
      "type": "function"
    },
    {
      "inputs": [],
      "name": "getBondDiscountRate",
      "outputs": [
        {
          "internalType": "uint256",
          "name": "_rate",
          "type": "uint256"
        }
      ],
      "stateMutability": "view",
      "type": "function"
    },
    {
      "inputs": [],
      "name": "getBondPremiumRate",
      "outputs": [
        {
          "internalType": "uint256",
          "name": "_rate",
          "type": "uint256"
        }
      ],
      "stateMutability": "view",
      "type": "function"
    },
    {
      "inputs": [],
      "name": "getBurnableTombLeft",
      "outputs": [
        {
          "internalType": "uint256",
          "name": "_burnableTombLeft",
          "type": "uint256"
        }
      ],
      "stateMutability": "view",
      "type": "function"
    },
    {
      "inputs": [],
      "name": "getRedeemableBonds",
      "outputs": [
        {
          "internalType": "uint256",
          "name": "_redeemableBonds",
          "type": "uint256"
        }
      ],
      "stateMutability": "view",
      "type": "function"
    },
    {
      "inputs": [],
      "name": "getReserve",
      "outputs": [
        {
          "internalType": "uint256",
          "name": "",
          "type": "uint256"
        }
      ],
      "stateMutability": "view",
      "type": "function"
    },
    {
      "inputs": [],
      "name": "getTombCirculatingSupply",
      "outputs": [
        {
          "internalType": "uint256",
          "name": "",
          "type": "uint256"
        }
      ],
      "stateMutability": "view",
      "type": "function"
    },
    {
      "inputs": [],
      "name": "getTombPrice",
      "outputs": [
        {
          "internalType": "uint256",
          "name": "tombPrice",
          "type": "uint256"
        }
      ],
      "stateMutability": "view",
      "type": "function"
    },
    {
      "inputs": [],
      "name": "getTombUpdatedPrice",
      "outputs": [
        {
          "internalType": "uint256",
          "name": "_tombPrice",
          "type": "uint256"
        }
      ],
      "stateMutability": "view",
      "type": "function"
    },
    {
      "inputs": [
        {
          "internalType": "contract IERC20",
          "name": "_token",
          "type": "address"
        },
        {
          "internalType": "uint256",
          "name": "_amount",
          "type": "uint256"
        },
        {
          "internalType": "address",
          "name": "_to",
          "type": "address"
        }
      ],
      "name": "governanceRecoverUnsupported",
      "outputs": [],
      "stateMutability": "nonpayable",
      "type": "function"
    },
    {
      "inputs": [
        {
          "internalType": "address",
          "name": "_tomb",
          "type": "address"
        },
        {
          "internalType": "address",
          "name": "_tbond",
          "type": "address"
        },
        {
          "internalType": "address",
          "name": "_tshare",
          "type": "address"
        },
        {
          "internalType": "address",
          "name": "_tombOracle",
          "type": "address"
        },
        {
          "internalType": "address",
          "name": "_masonry",
          "type": "address"
        },
        {
          "internalType": "address",
          "name": "_genesisPool",
          "type": "address"
        },
        {
          "internalType": "uint256",
          "name": "_startTime",
          "type": "uint256"
        }
      ],
      "name": "initialize",
      "outputs": [],
      "stateMutability": "nonpayable",
      "type": "function"
    },
    {
      "inputs": [],
      "name": "initialized",
      "outputs": [
        {
          "internalType": "bool",
          "name": "",
          "type": "bool"
        }
      ],
      "stateMutability": "view",
      "type": "function"
    },
    {
      "inputs": [],
      "name": "isInitialized",
      "outputs": [
        {
          "internalType": "bool",
          "name": "",
          "type": "bool"
        }
      ],
      "stateMutability": "view",
      "type": "function"
    },
    {
      "inputs": [],
      "name": "masonry",
      "outputs": [
        {
          "internalType": "address",
          "name": "",
          "type": "address"
        }
      ],
      "stateMutability": "view",
      "type": "function"
    },
    {
      "inputs": [
        {
          "internalType": "uint256",
          "name": "amount",
          "type": "uint256"
        }
      ],
      "name": "masonryAllocateSeigniorage",
      "outputs": [],
      "stateMutability": "nonpayable",
      "type": "function"
    },
    {
      "inputs": [
        {
          "internalType": "address",
          "name": "_token",
          "type": "address"
        },
        {
          "internalType": "uint256",
          "name": "_amount",
          "type": "uint256"
        },
        {
          "internalType": "address",
          "name": "_to",
          "type": "address"
        }
      ],
      "name": "masonryGovernanceRecoverUnsupported",
      "outputs": [],
      "stateMutability": "nonpayable",
      "type": "function"
    },
    {
      "inputs": [
        {
          "internalType": "uint256",
          "name": "_withdrawLockupEpochs",
          "type": "uint256"
        },
        {
          "internalType": "uint256",
          "name": "_rewardLockupEpochs",
          "type": "uint256"
        }
      ],
      "name": "masonrySetLockUp",
      "outputs": [],
      "stateMutability": "nonpayable",
      "type": "function"
    },
    {
      "inputs": [
        {
          "internalType": "address",
          "name": "_operator",
          "type": "address"
        }
      ],
      "name": "masonrySetOperator",
      "outputs": [],
      "stateMutability": "nonpayable",
      "type": "function"
    },
    {
      "inputs": [],
      "name": "maxDebtRatioPercent",
      "outputs": [
        {
          "internalType": "uint256",
          "name": "",
          "type": "uint256"
        }
      ],
      "stateMutability": "view",
      "type": "function"
    },
    {
      "inputs": [],
      "name": "maxDiscountRate",
      "outputs": [
        {
          "internalType": "uint256",
          "name": "",
          "type": "uint256"
        }
      ],
      "stateMutability": "view",
      "type": "function"
    },
    {
      "inputs": [
        {
          "internalType": "uint256",
          "name": "",
          "type": "uint256"
        }
      ],
      "name": "maxExpansionTiers",
      "outputs": [
        {
          "internalType": "uint256",
          "name": "",
          "type": "uint256"
        }
      ],
      "stateMutability": "view",
      "type": "function"
    },
    {
      "inputs": [],
      "name": "maxPremiumRate",
      "outputs": [
        {
          "internalType": "uint256",
          "name": "",
          "type": "uint256"
        }
      ],
      "stateMutability": "view",
      "type": "function"
    },
    {
      "inputs": [],
      "name": "maxSupplyContractionPercent",
      "outputs": [
        {
          "internalType": "uint256",
          "name": "",
          "type": "uint256"
        }
      ],
      "stateMutability": "view",
      "type": "function"
    },
    {
      "inputs": [],
      "name": "maxSupplyExpansionPercent",
      "outputs": [
        {
          "internalType": "uint256",
          "name": "",
          "type": "uint256"
        }
      ],
      "stateMutability": "view",
      "type": "function"
    },
    {
      "inputs": [],
      "name": "mintingFactorForPayingDebt",
      "outputs": [
        {
          "internalType": "uint256",
          "name": "",
          "type": "uint256"
        }
      ],
      "stateMutability": "view",
      "type": "function"
    },
    {
      "inputs": [],
      "name": "nextEpochPoint",
      "outputs": [
        {
          "internalType": "uint256",
          "name": "",
          "type": "uint256"
        }
      ],
      "stateMutability": "view",
      "type": "function"
    },
    {
      "inputs": [],
      "name": "operator",
      "outputs": [
        {
          "internalType": "address",
          "name": "",
          "type": "address"
        }
      ],
      "stateMutability": "view",
      "type": "function"
    },
    {
      "inputs": [],
      "name": "premiumPercent",
      "outputs": [
        {
          "internalType": "uint256",
          "name": "",
          "type": "uint256"
        }
      ],
      "stateMutability": "view",
      "type": "function"
    },
    {
      "inputs": [],
      "name": "premiumThreshold",
      "outputs": [
        {
          "internalType": "uint256",
          "name": "",
          "type": "uint256"
        }
      ],
      "stateMutability": "view",
      "type": "function"
    },
    {
      "inputs": [],
      "name": "previousEpochTombPrice",
      "outputs": [
        {
          "internalType": "uint256",
          "name": "",
          "type": "uint256"
        }
      ],
      "stateMutability": "view",
      "type": "function"
    },
    {
      "inputs": [
        {
          "internalType": "uint256",
          "name": "_bondAmount",
          "type": "uint256"
        },
        {
          "internalType": "uint256",
          "name": "targetPrice",
          "type": "uint256"
        }
      ],
      "name": "redeemBonds",
      "outputs": [],
      "stateMutability": "nonpayable",
      "type": "function"
    },
    {
      "inputs": [],
      "name": "seigniorageExpansionFloorPercent",
      "outputs": [
        {
          "internalType": "uint256",
          "name": "",
          "type": "uint256"
        }
      ],
      "stateMutability": "view",
      "type": "function"
    },
    {
      "inputs": [],
      "name": "seigniorageSaved",
      "outputs": [
        {
          "internalType": "uint256",
          "name": "",
          "type": "uint256"
        }
      ],
      "stateMutability": "view",
      "type": "function"
    },
    {
      "inputs": [
        {
          "internalType": "uint256",
          "name": "_bondDepletionFloorPercent",
          "type": "uint256"
        }
      ],
      "name": "setBondDepletionFloorPercent",
      "outputs": [],
      "stateMutability": "nonpayable",
      "type": "function"
    },
    {
      "inputs": [
        {
          "internalType": "uint256",
          "name": "_bootstrapEpochs",
          "type": "uint256"
        },
        {
          "internalType": "uint256",
          "name": "_bootstrapSupplyExpansionPercent",
          "type": "uint256"
        }
      ],
      "name": "setBootstrap",
      "outputs": [],
      "stateMutability": "nonpayable",
      "type": "function"
    },
    {
      "inputs": [
        {
          "internalType": "uint256",
          "name": "_discountPercent",
          "type": "uint256"
        }
      ],
      "name": "setDiscountPercent",
      "outputs": [],
      "stateMutability": "nonpayable",
      "type": "function"
    },
    {
      "inputs": [
        {
          "internalType": "address",
          "name": "_daoFund",
          "type": "address"
        },
        {
          "internalType": "uint256",
          "name": "_daoFundSharedPercent",
          "type": "uint256"
        },
        {
          "internalType": "address",
          "name": "_devFund",
          "type": "address"
        },
        {
          "internalType": "uint256",
          "name": "_devFundSharedPercent",
          "type": "uint256"
        }
      ],
      "name": "setExtraFunds",
      "outputs": [],
      "stateMutability": "nonpayable",
      "type": "function"
    },
    {
      "inputs": [
        {
          "internalType": "address",
          "name": "_masonry",
          "type": "address"
        }
      ],
      "name": "setMasonry",
      "outputs": [],
      "stateMutability": "nonpayable",
      "type": "function"
    },
    {
      "inputs": [
        {
          "internalType": "uint256",
          "name": "_maxDebtRatioPercent",
          "type": "uint256"
        }
      ],
      "name": "setMaxDebtRatioPercent",
      "outputs": [],
      "stateMutability": "nonpayable",
      "type": "function"
    },
    {
      "inputs": [
        {
          "internalType": "uint256",
          "name": "_maxDiscountRate",
          "type": "uint256"
        }
      ],
      "name": "setMaxDiscountRate",
      "outputs": [],
      "stateMutability": "nonpayable",
      "type": "function"
    },
    {
      "inputs": [
        {
          "internalType": "uint8",
          "name": "_index",
          "type": "uint8"
        },
        {
          "internalType": "uint256",
          "name": "_value",
          "type": "uint256"
        }
      ],
      "name": "setMaxExpansionTiersEntry",
      "outputs": [
        {
          "internalType": "bool",
          "name": "",
          "type": "bool"
        }
      ],
      "stateMutability": "nonpayable",
      "type": "function"
    },
    {
      "inputs": [
        {
          "internalType": "uint256",
          "name": "_maxPremiumRate",
          "type": "uint256"
        }
      ],
      "name": "setMaxPremiumRate",
      "outputs": [],
      "stateMutability": "nonpayable",
      "type": "function"
    },
    {
      "inputs": [
        {
          "internalType": "uint256",
          "name": "_maxSupplyContractionPercent",
          "type": "uint256"
        }
      ],
      "name": "setMaxSupplyContractionPercent",
      "outputs": [],
      "stateMutability": "nonpayable",
      "type": "function"
    },
    {
      "inputs": [
        {
          "internalType": "uint256",
          "name": "_maxSupplyExpansionPercent",
          "type": "uint256"
        }
      ],
      "name": "setMaxSupplyExpansionPercents",
      "outputs": [],
      "stateMutability": "nonpayable",
      "type": "function"
    },
    {
      "inputs": [
        {
          "internalType": "uint256",
          "name": "_mintingFactorForPayingDebt",
          "type": "uint256"
        }
      ],
      "name": "setMintingFactorForPayingDebt",
      "outputs": [],
      "stateMutability": "nonpayable",
      "type": "function"
    },
    {
      "inputs": [
        {
          "internalType": "address",
          "name": "_operator",
          "type": "address"
        }
      ],
      "name": "setOperator",
      "outputs": [],
      "stateMutability": "nonpayable",
      "type": "function"
    },
    {
      "inputs": [
        {
          "internalType": "uint256",
          "name": "_premiumPercent",
          "type": "uint256"
        }
      ],
      "name": "setPremiumPercent",
      "outputs": [],
      "stateMutability": "nonpayable",
      "type": "function"
    },
    {
      "inputs": [
        {
          "internalType": "uint256",
          "name": "_premiumThreshold",
          "type": "uint256"
        }
      ],
      "name": "setPremiumThreshold",
      "outputs": [],
      "stateMutability": "nonpayable",
      "type": "function"
    },
    {
      "inputs": [
        {
          "internalType": "uint8",
          "name": "_index",
          "type": "uint8"
        },
        {
          "internalType": "uint256",
          "name": "_value",
          "type": "uint256"
        }
      ],
      "name": "setSupplyTiersEntry",
      "outputs": [
        {
          "internalType": "bool",
          "name": "",
          "type": "bool"
        }
      ],
      "stateMutability": "nonpayable",
      "type": "function"
    },
    {
      "inputs": [
        {
          "internalType": "address",
          "name": "_tombOracle",
          "type": "address"
        }
      ],
      "name": "setTombOracle",
      "outputs": [],
      "stateMutability": "nonpayable",
      "type": "function"
    },
    {
      "inputs": [
        {
          "internalType": "uint256",
          "name": "_tombPriceCeiling",
          "type": "uint256"
        }
      ],
      "name": "setTombPriceCeiling",
      "outputs": [],
      "stateMutability": "nonpayable",
      "type": "function"
    },
    {
      "inputs": [],
      "name": "startTime",
      "outputs": [
        {
          "internalType": "uint256",
          "name": "",
          "type": "uint256"
        }
      ],
      "stateMutability": "view",
      "type": "function"
    },
    {
      "inputs": [
        {
          "internalType": "uint256",
          "name": "",
          "type": "uint256"
        }
      ],
      "name": "supplyTiers",
      "outputs": [
        {
          "internalType": "uint256",
          "name": "",
          "type": "uint256"
        }
      ],
      "stateMutability": "view",
      "type": "function"
    },
    {
      "inputs": [],
      "name": "tbond",
      "outputs": [
        {
          "internalType": "address",
          "name": "",
          "type": "address"
        }
      ],
      "stateMutability": "view",
      "type": "function"
    },
    {
      "inputs": [],
      "name": "tomb",
      "outputs": [
        {
          "internalType": "address",
          "name": "",
          "type": "address"
        }
      ],
      "stateMutability": "view",
      "type": "function"
    },
    {
      "inputs": [],
      "name": "tombOracle",
      "outputs": [
        {
          "internalType": "address",
          "name": "",
          "type": "address"
        }
      ],
      "stateMutability": "view",
      "type": "function"
    },
    {
      "inputs": [],
      "name": "tombPriceCeiling",
      "outputs": [
        {
          "internalType": "uint256",
          "name": "",
          "type": "uint256"
        }
      ],
      "stateMutability": "view",
      "type": "function"
    },
    {
      "inputs": [],
      "name": "tombPriceOne",
      "outputs": [
        {
          "internalType": "uint256",
          "name": "",
          "type": "uint256"
        }
      ],
      "stateMutability": "view",
      "type": "function"
    },
    {
      "inputs": [],
      "name": "tshare",
      "outputs": [
        {
          "internalType": "address",
          "name": "",
          "type": "address"
        }
      ],
      "stateMutability": "view",
      "type": "function"
    }
  ],
  "bytecode": "0x60806040526001805460ff60a01b191690556000600381905560045534801561002757600080fd5b506146fa806100376000396000f3fe608060405234801561001057600080fd5b50600436106104285760003560e01c806381d11eaf1161022b578063b981cdf311610130578063d4b14944116100b8578063e90b245411610087578063e90b2454146109c0578063ee6822a7146109c8578063f14698de146109d0578063f7741103146109d8578063fcb6f008146109e057610428565b8063d4b1494414610964578063d5d3b26c1461098a578063d98f2495146109b0578063da3ed419146109b857610428565b8063c5967c26116100ff578063c5967c2614610927578063c5cc772d1461092f578063c8412d0214610937578063c8f987f31461093f578063cecce38e1461094757610428565b8063b981cdf3146108c0578063bcc81f19146108c8578063be266d5414610902578063c040f23a1461091f57610428565b8063951357d4116101b3578063a204452b11610182578063a204452b14610865578063b3406cfc14610882578063b3ab15fb1461088a578063b4d1d795146108b0578063b8a878f9146108b857610428565b8063951357d4146107d857806398b762a11461080e578063998200251461082b578063a0487eea1461084857610428565b80638c664db6116101fa5780638c664db6146107625780638d934f741461077f578063900cf0cf1461078757806391bbfed51461078f578063940e6064146107b257610428565b806381d11eaf1461072d57806382cad83814610735578063874106cc146107525780638a6426e71461075a57610428565b806340af7ba51161033157806359bf5d39116102b957806363f96cf41161028857806363f96cf4146106cc57806372c054f9146106d4578063734f7096146106dc57806375be5ae1146106ff57806378e979251461072557610428565b806359bf5d391461068e5780635a0fc79c146106965780635b7561791461069e57806362ac58e4146106a657610428565b806354575af41161030057806354575af41461060857806354f04a111461063e57806355ebdeef14610661578063570ca73514610669578063591663e11461067157610428565b806340af7ba5146105a25780634294cf8e146105bf5780634390d2a8146105c7578063499f3f19146105eb57610428565b8063154ec2db116103b457806329ef19191161038357806329ef1919146105655780632e9c7b651461056d578063392e53cd146105755780633ed9ae251461057d5780634013a08e1461059a57610428565b8063154ec2db1461051c578063158ef93e1461053957806319a983491461055557806322f832cd1461055d57610428565b80630cac939c116103fb5780630cac939c1461048b5780630cf60175146104935780630db7eb0b1461049b578063118ebbf9146104a35780631460e390146104c657610428565b806303be7e761461042d57806304e5c7b11461044757806309bb4f92146104665780630b5bcec71461046e575b600080fd5b6104356109e8565b60408051918252519081900360200190f35b6104646004803603602081101561045d57600080fd5b50356109ee565b005b610435610abd565b6104646004803603602081101561048457600080fd5b5035610b98565b610435610c34565b610435610d42565b610435610ded565b610464600480360360408110156104b957600080fd5b5080359060200135610e8f565b610464600480360360e08110156104dc57600080fd5b506001600160a01b038135811691602081013582169160408201358116916060810135821691608082013581169160a08101359091169060c001356114ec565b6104646004803603602081101561053257600080fd5b5035611816565b6105416118bb565b604080519115158252519081900360200190f35b6104356118cb565b6104356118d1565b6104356118d7565b6104356118dd565b6105416118e3565b6104646004803603602081101561059357600080fd5b50356118f3565b6104356119ad565b610464600480360360208110156105b857600080fd5b50356119b3565b610435611a58565b6105cf611a5e565b604080516001600160a01b039092168252519081900360200190f35b6104646004803603602081101561060157600080fd5b5035611a6d565b6104646004803603606081101561061e57600080fd5b506001600160a01b03813581169160208101359160409091013516611b0a565b6104646004803603604081101561065457600080fd5b5080359060200135611c4f565b61043561238e565b6105cf612394565b6104646004803603602081101561068757600080fd5b50356123a3565b610435612445565b61043561244b565b610464612451565b610464600480360360208110156106bc57600080fd5b50356001600160a01b0316612b03565b6105cf612bb5565b610435612bc4565b610464600480360360408110156106f257600080fd5b5080359060200135612c84565b6104646004803603602081101561071557600080fd5b50356001600160a01b0316612d3d565b610435612da8565b610435612dae565b6105cf6004803603602081101561074b57600080fd5b5035612db4565b610435612ddb565b610435612de1565b6104646004803603602081101561077857600080fd5b5035612f21565b6105cf612fc3565b610435612fd2565b610464600480360360408110156107a557600080fd5b5080359060200135612fd8565b610541600480360360408110156107c857600080fd5b5060ff81351690602001356130d0565b610464600480360360608110156107ee57600080fd5b506001600160a01b038135811691602081013591604090910135166131ec565b6104646004803603602081101561082457600080fd5b50356132af565b6104356004803603602081101561084157600080fd5b50356132fd565b6104356004803603602081101561085e57600080fd5b503561331b565b6104646004803603602081101561087b57600080fd5b5035613328565b610435613376565b610464600480360360208110156108a057600080fd5b50356001600160a01b031661337c565b6104356133e7565b6104356133ed565b6105cf6133f3565b610464600480360360808110156108de57600080fd5b506001600160a01b0381358116916020810135916040820135169060600135613402565b6104646004803603602081101561091857600080fd5b5035613597565b6105cf61362d565b61043561363c565b610435613666565b6104356136c8565b6104356136ce565b6104646004803603602081101561095d57600080fd5b50356136d4565b6105416004803603604081101561097a57600080fd5b5060ff8135169060200135613775565b610464600480360360208110156109a057600080fd5b50356001600160a01b031661386f565b6104356138da565b6104356138e0565b6104356138e6565b6105cf6138ec565b6104356138fb565b6105cf613901565b610435613910565b60215481565b6001546001600160a01b03163314610a375760405162461bcd60e51b81526004018080602001828103825260248152602001806145916024913960400191505060405180910390fd5b600c54811015610a785760405162461bcd60e51b815260040180806020018281038252602a8152602001806143c9602a913960400191505060405180910390fd5b6096811115610ab85760405162461bcd60e51b81526004018080602001828103825260248152602001806144576024913960400191505060405180910390fd5b601b55565b600a5460065460408051633ddac95360e01b81526001600160a01b039283166004820152670de0b6b3a7640000602482015290516000939290921691633ddac95391604480820192602092909190829003018186803b158015610b1f57600080fd5b505afa925050508015610b4457506040513d6020811015610b3f57600080fd5b505160015b610b7f5760405162461bcd60e51b81526004018080602001828103825260368152602001806144216036913960400191505060405180910390fd5b71ffffffffffffffffffffffffffffffffffff16905090565b6001546001600160a01b03163314610be15760405162461bcd60e51b81526004018080602001828103825260248152602001806145916024913960400191505060405180910390fd5b600a8110158015610bf457506103e88111155b610c2f5760405162461bcd60e51b81526004018080602001828103825260288152602001806145406028913960400191505060405180910390fd5b601055565b600080610c3f610abd565b9050600b548111610d3e576000610c54612de1565b90506000610c79612710610c736014548561391690919063ffffffff16565b90613976565b90506000600760009054906101000a90046001600160a01b03166001600160a01b03166318160ddd6040518163ffffffff1660e01b815260040160206040518083038186803b158015610ccb57600080fd5b505afa158015610cdf573d6000803e3d6000fd5b505050506040513d6020811015610cf557600080fd5b5051905080821115610d3a576000610d0d83836139dd565b90506000610d27670de0b6b3a7640000610c738489613916565b9050610d3560045482613a3a565b965050505b5050505b5090565b600080610d4d610abd565b9050600b548111610d3e57601a54610d6957600b549150610d3e565b6000610d8c82610c73670de0b6b3a7640000600b5461391690919063ffffffff16565b90506000610db7612710610c73601a54610db1600b54876139dd90919063ffffffff16565b90613916565b600b54909150610dc79082613a50565b93506000601854118015610ddc575060185484115b15610de75760185493505b50505090565b600080610df8610abd565b9050600c54811115610d3e576000610e226064610c73601b54600b5461391690919063ffffffff16565b9050808210610e84576000610e4e612710610c73601c54610db1600b54886139dd90919063ffffffff16565b600b54909150610e5e9082613a50565b93506000601954118015610e73575060195484115b15610e7e5760195493505b50610e8a565b600b5492505b505090565b610e97613aaa565b15610ed35760405162461bcd60e51b81526004018080602001828103825260268152602001806145df6026913960400191505060405180910390fd5b610edb613ac9565b15610f175760405162461bcd60e51b81526004018080602001828103825260268152602001806145df6026913960400191505060405180910390fd5b600254421015610f6a576040805162461bcd60e51b8152602060048201526019602482015278151c99585cdd5c9e4e881b9bdd081cdd185c9d1959081e595d603a1b604482015290519081900360640190fd5b6006546040805163570ca73560e01b8152905130926001600160a01b03169163570ca735916004808301926020929190829003018186803b158015610fae57600080fd5b505afa158015610fc2573d6000803e3d6000fd5b505050506040513d6020811015610fd857600080fd5b50516001600160a01b031614801561106657506007546040805163570ca73560e01b8152905130926001600160a01b03169163570ca735916004808301926020929190829003018186803b15801561102f57600080fd5b505afa158015611043573d6000803e3d6000fd5b505050506040513d602081101561105957600080fd5b50516001600160a01b0316145b80156110e857506008546040805163570ca73560e01b8152905130926001600160a01b03169163570ca735916004808301926020929190829003018186803b1580156110b157600080fd5b505afa1580156110c5573d6000803e3d6000fd5b505050506040513d60208110156110db57600080fd5b50516001600160a01b0316145b801561116a57506009546040805163570ca73560e01b8152905130926001600160a01b03169163570ca735916004808301926020929190829003018186803b15801561113357600080fd5b505afa158015611147573d6000803e3d6000fd5b505050506040513d602081101561115d57600080fd5b50516001600160a01b0316145b6111bb576040805162461bcd60e51b815260206004820152601e60248201527f54726561737572793a206e656564206d6f7265207065726d697373696f6e0000604482015290519081900360640190fd5b600082116111fa5760405162461bcd60e51b815260040180806020018281038252602e8152602001806143f3602e913960400191505060405180910390fd5b6000611204610abd565b905081811461125a576040805162461bcd60e51b815260206004820152601a60248201527f54726561737572793a20544f4d42207072696365206d6f766564000000000000604482015290519081900360640190fd5b600c54811161129a5760405162461bcd60e51b815260040180806020018281038252603281526020018061463b6032913960400191505060405180910390fd5b60006112a4610ded565b9050600081116112fb576040805162461bcd60e51b815260206004820152601b60248201527f54726561737572793a20696e76616c696420626f6e6420726174650000000000604482015290519081900360640190fd5b6000611313670de0b6b3a7640000610c738785613916565b600654604080516370a0823160e01b8152306004820152905192935083926001600160a01b03909216916370a0823191602480820192602092909190829003018186803b15801561136357600080fd5b505afa158015611377573d6000803e3d6000fd5b505050506040513d602081101561138d57600080fd5b505110156113cc5760405162461bcd60e51b81526004018080602001828103825260258152602001806144a16025913960400191505060405180910390fd5b6113e46113db600d5483613a3a565b600d54906139dd565b600d556007546040805163079cc67960e41b81523360048201526024810188905290516001600160a01b03909216916379cc67909160448082019260009290919082900301818387803b15801561143a57600080fd5b505af115801561144e573d6000803e3d6000fd5b505060065461146a92506001600160a01b031690503383613ae8565b611472613b3a565b6040805182815260208101879052815133927f51e0d16595cabc591e64da08e45bb223577e5b9a39cd947b4ddc3472b2dd8878928290030190a25050436000908152602081815260408083203284529091528082208054600160ff1991821681179092553384529190922080549091169091179055505050565b600154600160a01b900460ff161561154b576040805162461bcd60e51b815260206004820152601d60248201527f54726561737572793a20616c726561647920696e697469616c697a6564000000604482015290519081900360640190fd5b600680546001600160a01b03199081166001600160a01b038a811691909117909255600780548216898416179055600880548216888416179055600a805482168784161790556009805482168684161790556002839055600580546001810182556000919091527f036b6384b5eca791c62761152d0c79bb0604c104a5fb6f4eb0703f3154bb3db0018054909116918416919091179055670de0b6b3a7640000600b81905561160290606490610c73906065613916565b600c556040805161012081018252600081526969e10de76676d0800000602082015269d3c21bcecceda1000000918101919091526a013da329b633647180000060608201526a01a784379d99db4200000060808201526a0422ca8b0a00a42500000060a08201526a084595161401484a00000060c08201526a108b2a2c2802909400000060e08201526a295be96e640669720000006101008201526116ab90600e90600961431c565b5060408051610120810182526101c28152610190602082015261015e9181019190915261012c606082015260fa608082015260c860a0820152609660c0820152607d60e0820152606461010082015261170890600f906009614372565b50610190601055612710601155610dac601281905561012c601355601455606e601b55611b58601c9081556015556101c2601655600654604080516370a0823160e01b815230600482015290516001600160a01b03909216916370a0823191602480820192602092909190829003018186803b15801561178757600080fd5b505afa15801561179b573d6000803e3d6000fd5b505050506040513d60208110156117b157600080fd5b5051600d55600180546001600160a01b031960ff60a01b19909116600160a01b1716339081179091556040805143815290517f25ff68dd81b34665b5ba7e553ee5511bf6812e12adb4a7e2c0d9e26b3099ce799181900360200190a250505050505050565b6001546001600160a01b0316331461185f5760405162461bcd60e51b81526004018080602001828103825260248152602001806145916024913960400191505060405180910390fd5b614e208111156118b6576040805162461bcd60e51b815260206004820152601d60248201527f5f646973636f756e7450657263656e74206973206f7665722032303025000000604482015290519081900360640190fd5b601a55565b600154600160a01b900460ff1681565b600c5481565b60125481565b601a5481565b60195481565b600154600160a01b900460ff1690565b6001546001600160a01b0316331461193c5760405162461bcd60e51b81526004018080602001828103825260248152602001806145916024913960400191505060405180910390fd5b600b54811015801561196857506119646064610c736078600b5461391690919063ffffffff16565b8111155b6119a8576040805162461bcd60e51b815260206004820152600c60248201526b6f7574206f662072616e676560a01b604482015290519081900360640190fd5b600c55565b601d5481565b6001546001600160a01b031633146119fc5760405162461bcd60e51b81526004018080602001828103825260248152602001806145916024913960400191505060405180910390fd5b614e20811115611a53576040805162461bcd60e51b815260206004820152601c60248201527f5f7072656d69756d50657263656e74206973206f766572203230302500000000604482015290519081900360640190fd5b601c55565b600b5481565b6020546001600160a01b031681565b6001546001600160a01b03163314611ab65760405162461bcd60e51b81526004018080602001828103825260248152602001806145916024913960400191505060405180910390fd5b6127108110158015611aca5750614e208111155b611b055760405162461bcd60e51b81526004018080602001828103825260298152602001806145176029913960400191505060405180910390fd5b601d55565b6001546001600160a01b03163314611b535760405162461bcd60e51b81526004018080602001828103825260248152602001806145916024913960400191505060405180910390fd5b6006546001600160a01b0384811691161415611b9f576040805162461bcd60e51b815260206004808301919091526024820152633a37b6b160e11b604482015290519081900360640190fd5b6007546001600160a01b0384811691161415611beb576040805162461bcd60e51b81526020600480830191909152602482015263189bdb9960e21b604482015290519081900360640190fd5b6008546001600160a01b0384811691161415611c36576040805162461bcd60e51b8152602060048201526005602482015264736861726560d81b604482015290519081900360640190fd5b611c4a6001600160a01b0384168284613ae8565b505050565b611c57613aaa565b15611c935760405162461bcd60e51b81526004018080602001828103825260268152602001806145df6026913960400191505060405180910390fd5b611c9b613ac9565b15611cd75760405162461bcd60e51b81526004018080602001828103825260268152602001806145df6026913960400191505060405180910390fd5b600254421015611d2a576040805162461bcd60e51b8152602060048201526019602482015278151c99585cdd5c9e4e881b9bdd081cdd185c9d1959081e595d603a1b604482015290519081900360640190fd5b6006546040805163570ca73560e01b8152905130926001600160a01b03169163570ca735916004808301926020929190829003018186803b158015611d6e57600080fd5b505afa158015611d82573d6000803e3d6000fd5b505050506040513d6020811015611d9857600080fd5b50516001600160a01b0316148015611e2657506007546040805163570ca73560e01b8152905130926001600160a01b03169163570ca735916004808301926020929190829003018186803b158015611def57600080fd5b505afa158015611e03573d6000803e3d6000fd5b505050506040513d6020811015611e1957600080fd5b50516001600160a01b0316145b8015611ea857506008546040805163570ca73560e01b8152905130926001600160a01b03169163570ca735916004808301926020929190829003018186803b158015611e7157600080fd5b505afa158015611e85573d6000803e3d6000fd5b505050506040513d6020811015611e9b57600080fd5b50516001600160a01b0316145b8015611f2a57506009546040805163570ca73560e01b8152905130926001600160a01b03169163570ca735916004808301926020929190829003018186803b158015611ef357600080fd5b505afa158015611f07573d6000803e3d6000fd5b505050506040513d6020811015611f1d57600080fd5b50516001600160a01b0316145b611f7b576040805162461bcd60e51b815260206004820152601e60248201527f54726561737572793a206e656564206d6f7265207065726d697373696f6e0000604482015290519081900360640190fd5b60008211611fba5760405162461bcd60e51b81526004018080602001828103825260308152602001806144e76030913960400191505060405180910390fd5b6000611fc4610abd565b905081811461201a576040805162461bcd60e51b815260206004820152601a60248201527f54726561737572793a20544f4d42207072696365206d6f766564000000000000604482015290519081900360640190fd5b600b54811061205a5760405162461bcd60e51b815260040180806020018281038252603281526020018061463b6032913960400191505060405180910390fd5b60045483111561209b5760405162461bcd60e51b815260040180806020018281038252602a81526020018061466d602a913960400191505060405180910390fd5b60006120a5610d42565b9050600081116120fc576040805162461bcd60e51b815260206004820152601b60248201527f54726561737572793a20696e76616c696420626f6e6420726174650000000000604482015290519081900360640190fd5b6000612114670de0b6b3a7640000610c738785613916565b90506000612120612de1565b905060006121a883600760009054906101000a90046001600160a01b03166001600160a01b03166318160ddd6040518163ffffffff1660e01b815260040160206040518083038186803b15801561217657600080fd5b505afa15801561218a573d6000803e3d6000fd5b505050506040513d60208110156121a057600080fd5b505190613a50565b90506121c5612710610c736014548561391690919063ffffffff16565b81111561220f576040805162461bcd60e51b81526020600482015260136024820152726f766572206d6178206465627420726174696f60681b604482015290519081900360640190fd5b6006546040805163079cc67960e41b8152336004820152602481018a905290516001600160a01b03909216916379cc67909160448082019260009290919082900301818387803b15801561226257600080fd5b505af1158015612276573d6000803e3d6000fd5b5050600754604080516340c10f1960e01b81523360048201526024810188905290516001600160a01b0390921693506340c10f1992506044808201926020929091908290030181600087803b1580156122ce57600080fd5b505af11580156122e2573d6000803e3d6000fd5b505050506040513d60208110156122f857600080fd5b505060045461230790886139dd565b600455612312613b3a565b6040805188815260208101859052815133927f73017f1b70789e2e66759eeb3c7ec11f59e6eedb55d921cfaec5410dd42a4799928290030190a25050436000908152602081815260408083203284529091528082208054600160ff19918216811790925533845291909220805490911690911790555050505050565b601f5481565b6001546001600160a01b031681565b6001546001600160a01b031633146123ec5760405162461bcd60e51b81526004018080602001828103825260248152602001806145916024913960400191505060405180910390fd5b6103e8811015801561240057506127108111155b612440576040805162461bcd60e51b815260206004820152600c60248201526b6f7574206f662072616e676560a01b604482015290519081900360640190fd5b601455565b600d5490565b600d5481565b612459613aaa565b156124955760405162461bcd60e51b81526004018080602001828103825260268152602001806145df6026913960400191505060405180910390fd5b61249d613ac9565b156124d95760405162461bcd60e51b81526004018080602001828103825260268152602001806145df6026913960400191505060405180910390fd5b60025442101561252c576040805162461bcd60e51b8152602060048201526019602482015278151c99585cdd5c9e4e881b9bdd081cdd185c9d1959081e595d603a1b604482015290519081900360640190fd5b61253461363c565b421015612588576040805162461bcd60e51b815260206004820152601860248201527f54726561737572793a206e6f74206f70656e6564207965740000000000000000604482015290519081900360640190fd5b6006546040805163570ca73560e01b8152905130926001600160a01b03169163570ca735916004808301926020929190829003018186803b1580156125cc57600080fd5b505afa1580156125e0573d6000803e3d6000fd5b505050506040513d60208110156125f657600080fd5b50516001600160a01b031614801561268457506007546040805163570ca73560e01b8152905130926001600160a01b03169163570ca735916004808301926020929190829003018186803b15801561264d57600080fd5b505afa158015612661573d6000803e3d6000fd5b505050506040513d602081101561267757600080fd5b50516001600160a01b0316145b801561270657506008546040805163570ca73560e01b8152905130926001600160a01b03169163570ca735916004808301926020929190829003018186803b1580156126cf57600080fd5b505afa1580156126e3573d6000803e3d6000fd5b505050506040513d60208110156126f957600080fd5b50516001600160a01b0316145b801561278857506009546040805163570ca73560e01b8152905130926001600160a01b03169163570ca735916004808301926020929190829003018186803b15801561275157600080fd5b505afa158015612765573d6000803e3d6000fd5b505050506040513d602081101561277b57600080fd5b50516001600160a01b0316145b6127d9576040805162461bcd60e51b815260206004820152601e60248201527f54726561737572793a206e656564206d6f7265207065726d697373696f6e0000604482015290519081900360640190fd5b6127e1613b3a565b6127e9610abd565b601755600d54600090612804906127fe612de1565b906139dd565b9050601554600354101561283a57612835612830612710610c736016548561391690919063ffffffff16565b613b9e565b612a87565b600c546017541115612a8757600754604080516318160ddd60e01b815290516000926001600160a01b0316916318160ddd916004808301926020929190829003018186803b15801561288b57600080fd5b505afa15801561289f573d6000803e3d6000fd5b505050506040513d60208110156128b557600080fd5b5051600b546017549192506000916128cc916139dd565b905060008060006128e6655af3107a4000610db188613ede565b9050808411156128f4578093505b61290f612710610c736011548861391690919063ffffffff16565b600d54106129345761292d670de0b6b3a7640000610c738887613916565b91506129a0565b600061294c670de0b6b3a7640000610c738988613916565b9050612969612710610c736012548461391690919063ffffffff16565b925061297581846139dd565b601d549094501561299e5761299b612710610c73601d548761391690919063ffffffff16565b93505b505b81156129af576129af82613b9e565b8215612a8157600d546129c29084613a50565b600d55600654604080516340c10f1960e01b81523060048201526024810186905290516001600160a01b03909216916340c10f19916044808201926020929091908290030181600087803b158015612a1957600080fd5b505af1158015612a2d573d6000803e3d6000fd5b505050506040513d6020811015612a4357600080fd5b5050604080514281526020810185905281517ff705142bf09f04297640495ddf7c59b7fd6f51894c5aea9602d631cf05f0efc2929181900390910190a15b50505050505b50600354612a96906001613a50565b600355600c54612aa4610abd565b11612ac257612abd612710610c73601354610db1612de1565b612ac5565b60005b600455436000908152602081815260408083203284529091528082208054600160ff1991821681179092553384529190922080549091169091179055565b6001546001600160a01b03163314612b4c5760405162461bcd60e51b81526004018080602001828103825260248152602001806145916024913960400191505060405180910390fd5b6009546040805163b3ab15fb60e01b81526001600160a01b0384811660048301529151919092169163b3ab15fb91602480830192600092919082900301818387803b158015612b9a57600080fd5b505af1158015612bae573d6000803e3d6000fd5b5050505050565b6009546001600160a01b031681565b600080612bcf610abd565b9050600c54811115610d3e57600654604080516370a0823160e01b815230600482015290516000926001600160a01b0316916370a08231916024808301926020929190829003018186803b158015612c2657600080fd5b505afa158015612c3a573d6000803e3d6000fd5b505050506040513d6020811015612c5057600080fd5b505190506000612c5e610ded565b90508015610de757612c7c81610c7384670de0b6b3a7640000613916565b935050505090565b6001546001600160a01b03163314612ccd5760405162461bcd60e51b81526004018080602001828103825260248152602001806145916024913960400191505060405180910390fd5b60095460408051632ffaaa0960e01b8152600481018590526024810184905290516001600160a01b0390921691632ffaaa099160448082019260009290919082900301818387803b158015612d2157600080fd5b505af1158015612d35573d6000803e3d6000fd5b505050505050565b6001546001600160a01b03163314612d865760405162461bcd60e51b81526004018080602001828103825260248152602001806145916024913960400191505060405180910390fd5b600a80546001600160a01b0319166001600160a01b0392909216919091179055565b60025481565b60115481565b60058181548110612dc157fe5b6000918252602090912001546001600160a01b0316905081565b60165481565b600654604080516318160ddd60e01b815290516000926001600160a01b031691839183916318160ddd916004808301926020929190829003018186803b158015612e2a57600080fd5b505afa158015612e3e573d6000803e3d6000fd5b505050506040513d6020811015612e5457600080fd5b505190506000805b60055460ff82161015612f1657612f0c846001600160a01b03166370a0823160058460ff1681548110612e8b57fe5b60009182526020918290200154604080516001600160e01b031960e086901b1681526001600160a01b0390921660048301525160248083019392829003018186803b158015612ed957600080fd5b505afa158015612eed573d6000803e3d6000fd5b505050506040513d6020811015612f0357600080fd5b50518390613a50565b9150600101612e5c565b50612c7c82826139dd565b6001546001600160a01b03163314612f6a5760405162461bcd60e51b81526004018080602001828103825260248152602001806145916024913960400191505060405180910390fd5b6101f48110158015612f7e57506127108111155b612fbe576040805162461bcd60e51b815260206004820152600c60248201526b6f7574206f662072616e676560a01b604482015290519081900360640190fd5b601155565b601e546001600160a01b031681565b60035481565b6001546001600160a01b031633146130215760405162461bcd60e51b81526004018080602001828103825260248152602001806145916024913960400191505060405180910390fd5b6078821115613077576040805162461bcd60e51b815260206004820152601e60248201527f5f626f6f74737472617045706f6368733a206f7574206f662072616e67650000604482015290519081900360640190fd5b6064811015801561308a57506103e88111155b6130c55760405162461bcd60e51b815260040180806020018281038252602e815260200180614697602e913960400191505060405180910390fd5b601591909155601655565b6001546000906001600160a01b0316331461311c5760405162461bcd60e51b81526004018080602001828103825260248152602001806145916024913960400191505060405180910390fd5b60098360ff161061315e5760405162461bcd60e51b81526004018080602001828103825260298152602001806145686029913960400191505060405180910390fd5b60ff83161561319057600e6001840360ff168154811061317a57fe5b9060005260206000200154821161319057600080fd5b60088360ff1610156131c557600e8360010160ff16815481106131af57fe5b906000526020600020015482106131c557600080fd5b81600e8460ff16815481106131d657fe5b6000918252602090912001555060015b92915050565b6001546001600160a01b031633146132355760405162461bcd60e51b81526004018080602001828103825260248152602001806145916024913960400191505060405180910390fd5b60095460408051631515d6bd60e21b81526001600160a01b038681166004830152602482018690528481166044830152915191909216916354575af491606480830192600092919082900301818387803b15801561329257600080fd5b505af11580156132a6573d6000803e3d6000fd5b50505050505050565b6001546001600160a01b031633146132f85760405162461bcd60e51b81526004018080602001828103825260248152602001806145916024913960400191505060405180910390fd5b601855565b600e818154811061330a57fe5b600091825260209091200154905081565b600f818154811061330a57fe5b6001546001600160a01b031633146133715760405162461bcd60e51b81526004018080602001828103825260248152602001806145916024913960400191505060405180910390fd5b601955565b60175481565b6001546001600160a01b031633146133c55760405162461bcd60e51b81526004018080602001828103825260248152602001806145916024913960400191505060405180910390fd5b600180546001600160a01b0319166001600160a01b0392909216919091179055565b61546081565b60185481565b6007546001600160a01b031681565b6001546001600160a01b0316331461344b5760405162461bcd60e51b81526004018080602001828103825260248152602001806145916024913960400191505060405180910390fd5b6001600160a01b03841661348f576040805162461bcd60e51b815260206004808301919091526024820152637a65726f60e01b604482015290519081900360640190fd5b610bb88311156134d5576040805162461bcd60e51b815260206004820152600c60248201526b6f7574206f662072616e676560a01b604482015290519081900360640190fd5b6001600160a01b038216613519576040805162461bcd60e51b815260206004808301919091526024820152637a65726f60e01b604482015290519081900360640190fd5b6103e881111561355f576040805162461bcd60e51b815260206004820152600c60248201526b6f7574206f662072616e676560a01b604482015290519081900360640190fd5b601e80546001600160a01b03199081166001600160a01b0396871617909155601f939093556020805490931691909316179055602155565b6001546001600160a01b031633146135e05760405162461bcd60e51b81526004018080602001828103825260248152602001806145916024913960400191505060405180910390fd5b600954604080516397ffe1d760e01b81526004810184905290516001600160a01b03909216916397ffe1d79160248082019260009290919082900301818387803b158015612b9a57600080fd5b6006546001600160a01b031681565b600061366161365861546060035461391690919063ffffffff16565b60025490613a50565b905090565b600a5460065460408051630d01142560e31b81526001600160a01b039283166004820152670de0b6b3a7640000602482015290516000939290921691636808a12891604480820192602092909190829003018186803b158015610b1f57600080fd5b601c5481565b601b5481565b6001546001600160a01b0316331461371d5760405162461bcd60e51b81526004018080602001828103825260248152602001806145916024913960400191505060405180910390fd5b6064811015801561373057506105dc8111155b613770576040805162461bcd60e51b815260206004820152600c60248201526b6f7574206f662072616e676560a01b604482015290519081900360640190fd5b601355565b6001546000906001600160a01b031633146137c15760405162461bcd60e51b81526004018080602001828103825260248152602001806145916024913960400191505060405180910390fd5b60098360ff16106138035760405162461bcd60e51b81526004018080602001828103825260298152602001806145686029913960400191505060405180910390fd5b600a821015801561381657506103e88211155b61385e576040805162461bcd60e51b81526020600482015260146024820152735f76616c75653a206f7574206f662072616e676560601b604482015290519081900360640190fd5b81600f8460ff16815481106131d657fe5b6001546001600160a01b031633146138b85760405162461bcd60e51b81526004018080602001828103825260248152602001806145916024913960400191505060405180910390fd5b600980546001600160a01b0319166001600160a01b0392909216919091179055565b60105481565b60145481565b60135481565b6008546001600160a01b031681565b60155481565b600a546001600160a01b031681565b60045481565b600082613925575060006131e6565b8282028284828161393257fe5b041461396f5760405162461bcd60e51b81526004018080602001828103825260218152602001806144c66021913960400191505060405180910390fd5b9392505050565b60008082116139cc576040805162461bcd60e51b815260206004820152601a60248201527f536166654d6174683a206469766973696f6e206279207a65726f000000000000604482015290519081900360640190fd5b8183816139d557fe5b049392505050565b600082821115613a34576040805162461bcd60e51b815260206004820152601e60248201527f536166654d6174683a207375627472616374696f6e206f766572666c6f770000604482015290519081900360640190fd5b50900390565b6000818310613a49578161396f565b5090919050565b60008282018381101561396f576040805162461bcd60e51b815260206004820152601b60248201527f536166654d6174683a206164646974696f6e206f766572666c6f770000000000604482015290519081900360640190fd5b4360009081526020818152604080832032845290915290205460ff1690565b4360009081526020818152604080832033845290915290205460ff1690565b604080516001600160a01b038416602482015260448082018490528251808303909101815260649091019091526020810180516001600160e01b031663a9059cbb60e01b179052611c4a908490613f3b565b600a60009054906101000a90046001600160a01b03166001600160a01b031663a2e620456040518163ffffffff1660e01b8152600401600060405180830381600087803b158015613b8a57600080fd5b505af1925050508015613b9b575060015b50565b600654604080516340c10f1960e01b81523060048201526024810184905290516001600160a01b03909216916340c10f19916044808201926020929091908290030181600087803b158015613bf257600080fd5b505af1158015613c06573d6000803e3d6000fd5b505050506040513d6020811015613c1c57600080fd5b5050601f5460009015613d0757613c44612710610c73601f548561391690919063ffffffff16565b600654601e546040805163a9059cbb60e01b81526001600160a01b03928316600482015260248101859052905193945091169163a9059cbb916044808201926020929091908290030181600087803b158015613c9f57600080fd5b505af1158015613cb3573d6000803e3d6000fd5b505050506040513d6020811015613cc957600080fd5b5050604080514281526020810183905281517fcb3f34aaa3445b461e6da5492dc89e5c257a59fa598131f3b6bbc97a3638e409929181900390910190a15b60215460009015613ded57613d2d612710610c736021548661391690919063ffffffff16565b600654602080546040805163a9059cbb60e01b81526001600160a01b03928316600482015260248101869052905194955092169263a9059cbb9260448082019392918290030181600087803b158015613d8557600080fd5b505af1158015613d99573d6000803e3d6000fd5b505050506040513d6020811015613daf57600080fd5b5050604080514281526020810183905281517fdc8b715b18523e58b7fd0da53259dfa91efd91df4a854d94b136e3333a3b9395929181900390910190a15b613dfb816127fe85856139dd565b600954600654919450613e1c916001600160a01b0390811691166000613fec565b600954600654613e39916001600160a01b03918216911685613fec565b600954604080516397ffe1d760e01b81526004810186905290516001600160a01b03909216916397ffe1d79160248082019260009290919082900301818387803b158015613e8657600080fd5b505af1158015613e9a573d6000803e3d6000fd5b5050604080514281526020810187905281517fa72fa2f263b243b0f0e1fec5f3d49d33de573d15929b6b730c6b8ab3838c1c4d9450908190039091019150a1505050565b600060085b600e8160ff1681548110613ef357fe5b90600052602060002001548310613f2857600f8160ff1681548110613f1457fe5b600091825260209091200154601055613f31565b60001901613ee3565b5050601054919050565b6060613f90826040518060400160405280602081526020017f5361666545524332303a206c6f772d6c6576656c2063616c6c206661696c6564815250856001600160a01b03166140ff9092919063ffffffff16565b805190915015611c4a57808060200190516020811015613faf57600080fd5b5051611c4a5760405162461bcd60e51b815260040180806020018281038252602a8152602001806145b5602a913960400191505060405180910390fd5b801580614072575060408051636eb1769f60e11b81523060048201526001600160a01b03848116602483015291519185169163dd62ed3e91604480820192602092909190829003018186803b15801561404457600080fd5b505afa158015614058573d6000803e3d6000fd5b505050506040513d602081101561406e57600080fd5b5051155b6140ad5760405162461bcd60e51b81526004018080602001828103825260368152602001806146056036913960400191505060405180910390fd5b604080516001600160a01b038416602482015260448082018490528251808303909101815260649091019091526020810180516001600160e01b031663095ea7b360e01b179052611c4a908490613f3b565b606061410e8484600085614116565b949350505050565b6060824710156141575760405162461bcd60e51b815260040180806020018281038252602681526020018061447b6026913960400191505060405180910390fd5b61416085614272565b6141b1576040805162461bcd60e51b815260206004820152601d60248201527f416464726573733a2063616c6c20746f206e6f6e2d636f6e7472616374000000604482015290519081900360640190fd5b60006060866001600160a01b031685876040518082805190602001908083835b602083106141f05780518252601f1990920191602091820191016141d1565b6001836020036101000a03801982511681845116808217855250505050505090500191505060006040518083038185875af1925050503d8060008114614252576040519150601f19603f3d011682016040523d82523d6000602084013e614257565b606091505b5091509150614267828286614278565b979650505050505050565b3b151590565b6060831561428757508161396f565b8251156142975782518084602001fd5b8160405162461bcd60e51b81526004018080602001828103825283818151815260200191508051906020019080838360005b838110156142e15781810151838201526020016142c9565b50505050905090810190601f16801561430e5780820380516001836020036101000a031916815260200191505b509250505060405180910390fd5b828054828255906000526020600020908101928215614366579160200282015b8281111561436657825182906affffffffffffffffffffff1690559160200191906001019061433c565b50610d3e9291506143b3565b828054828255906000526020600020908101928215614366579160200282015b82811115614366578251829061ffff16905591602001919060010190614392565b5b80821115610d3e57600081556001016143b456fe5f7072656d69756d5468726573686f6c64206578636565647320746f6d6250726963654365696c696e6754726561737572793a2063616e6e6f742072656465656d20626f6e64732077697468207a65726f20616d6f756e7454726561737572793a206661696c656420746f20636f6e73756c7420544f4d422070726963652066726f6d20746865206f7261636c655f7072656d69756d5468726573686f6c6420697320686967686572207468616e20312e35416464726573733a20696e73756666696369656e742062616c616e636520666f722063616c6c54726561737572793a20747265617375727920686173206e6f206d6f726520627564676574536166654d6174683a206d756c7469706c69636174696f6e206f766572666c6f7754726561737572793a2063616e6e6f7420707572636861736520626f6e64732077697468207a65726f20616d6f756e745f6d696e74696e67466163746f72466f72506179696e67446562743a206f7574206f662072616e67655f6d6178537570706c79457870616e73696f6e50657263656e743a206f7574206f662072616e6765496e6465782068617320746f206265206c6f776572207468616e20636f756e74206f6620746965727354726561737572793a2063616c6c6572206973206e6f7420746865206f70657261746f725361666545524332303a204552433230206f7065726174696f6e20646964206e6f742073756363656564436f6e747261637447756172643a206f6e6520626c6f636b2c206f6e652066756e6374696f6e5361666545524332303a20617070726f76652066726f6d206e6f6e2d7a65726f20746f206e6f6e2d7a65726f20616c6c6f77616e636554726561737572793a20746f6d625072696365206e6f7420656c696769626c6520666f7220626f6e6420707572636861736554726561737572793a206e6f7420656e6f75676820626f6e64206c65667420746f2070757263686173655f626f6f747374726170537570706c79457870616e73696f6e50657263656e743a206f7574206f662072616e6765a264697066735822122095567c3316fb1de2205de9e0eef981edee90c9f0cd1c50b118327618c740043564736f6c634300060c0033",
  "linkReferences": {},
  "deployedLinkReferences": {}
}