{
  "_format": "hh-sol-artifact-1",
  "contractName": "TombGenesisRewardPool",
  "sourceName": "contracts/distribution/TombGenesisRewardPool.sol",
  "abi": [
    {
      "inputs": [
        {
          "internalType": "address",
          "name": "_tomb",
          "type": "address"
        },
        {
          "internalType": "uint256",
          "name": "_poolStartTime",
          "type": "uint256"
        }
      ],
      "stateMutability": "nonpayable",
      "type": "constructor"
    },
    {
      "anonymous": false,
      "inputs": [
        {
          "indexed": true,
          "internalType": "address",
          "name": "user",
          "type": "address"
        },
        {
          "indexed": true,
          "internalType": "uint256",
          "name": "pid",
          "type": "uint256"
        },
        {
          "indexed": false,
          "internalType": "uint256",
          "name": "amount",
          "type": "uint256"
        }
      ],
      "name": "Deposit",
      "type": "event"
    },
    {
      "anonymous": false,
      "inputs": [
        {
          "indexed": true,
          "internalType": "address",
          "name": "user",
          "type": "address"
        },
        {
          "indexed": true,
          "internalType": "uint256",
          "name": "pid",
          "type": "uint256"
        },
        {
          "indexed": false,
          "internalType": "uint256",
          "name": "amount",
          "type": "uint256"
        }
      ],
      "name": "EmergencyWithdraw",
      "type": "event"
    },
    {
      "anonymous": false,
      "inputs": [
        {
          "indexed": true,
          "internalType": "address",
          "name": "user",
          "type": "address"
        },
        {
          "indexed": false,
          "internalType": "uint256",
          "name": "amount",
          "type": "uint256"
        }
      ],
      "name": "RewardPaid",
      "type": "event"
    },
    {
      "anonymous": false,
      "inputs": [
        {
          "indexed": true,
          "internalType": "address",
          "name": "user",
          "type": "address"
        },
        {
          "indexed": true,
          "internalType": "uint256",
          "name": "pid",
          "type": "uint256"
        },
        {
          "indexed": false,
          "internalType": "uint256",
          "name": "amount",
          "type": "uint256"
        }
      ],
      "name": "Withdraw",
      "type": "event"
    },
    {
      "inputs": [],
      "name": "TOTAL_REWARDS",
      "outputs": [
        {
          "internalType": "uint256",
          "name": "",
          "type": "uint256"
        }
      ],
      "stateMutability": "view",
      "type": "function"
    },
    {
      "inputs": [
        {
          "internalType": "uint256",
          "name": "_allocPoint",
          "type": "uint256"
        },
        {
          "internalType": "contract IERC20",
          "name": "_token",
          "type": "address"
        },
        {
          "internalType": "bool",
          "name": "_withUpdate",
          "type": "bool"
        },
        {
          "internalType": "uint256",
          "name": "_lastRewardTime",
          "type": "uint256"
        },
        {
          "internalType": "uint256",
          "name": "_fee",
          "type": "uint256"
        }
      ],
      "name": "add",
      "outputs": [],
      "stateMutability": "nonpayable",
      "type": "function"
    },
    {
      "inputs": [
        {
          "internalType": "uint256",
          "name": "_pid",
          "type": "uint256"
        },
        {
          "internalType": "uint256",
          "name": "_amount",
          "type": "uint256"
        }
      ],
      "name": "deposit",
      "outputs": [],
      "stateMutability": "nonpayable",
      "type": "function"
    },
    {
      "inputs": [
        {
          "internalType": "uint256",
          "name": "_pid",
          "type": "uint256"
        }
      ],
      "name": "emergencyWithdraw",
      "outputs": [],
      "stateMutability": "nonpayable",
      "type": "function"
    },
    {
      "inputs": [
        {
          "internalType": "uint256",
          "name": "_fromTime",
          "type": "uint256"
        },
        {
          "internalType": "uint256",
          "name": "_toTime",
          "type": "uint256"
        }
      ],
      "name": "getGeneratedReward",
      "outputs": [
        {
          "internalType": "uint256",
          "name": "",
          "type": "uint256"
        }
      ],
      "stateMutability": "view",
      "type": "function"
    },
    {
      "inputs": [
        {
          "internalType": "contract IERC20",
          "name": "_token",
          "type": "address"
        },
        {
          "internalType": "uint256",
          "name": "amount",
          "type": "uint256"
        },
        {
          "internalType": "address",
          "name": "to",
          "type": "address"
        }
      ],
      "name": "governanceRecoverUnsupported",
      "outputs": [],
      "stateMutability": "nonpayable",
      "type": "function"
    },
    {
      "inputs": [],
      "name": "massUpdatePools",
      "outputs": [],
      "stateMutability": "nonpayable",
      "type": "function"
    },
    {
      "inputs": [],
      "name": "operator",
      "outputs": [
        {
          "internalType": "address",
          "name": "",
          "type": "address"
        }
      ],
      "stateMutability": "view",
      "type": "function"
    },
    {
      "inputs": [
        {
          "internalType": "uint256",
          "name": "_pid",
          "type": "uint256"
        },
        {
          "internalType": "address",
          "name": "_user",
          "type": "address"
        }
      ],
      "name": "pendingTOMB",
      "outputs": [
        {
          "internalType": "uint256",
          "name": "",
          "type": "uint256"
        }
      ],
      "stateMutability": "view",
      "type": "function"
    },
    {
      "inputs": [],
      "name": "poolEndTime",
      "outputs": [
        {
          "internalType": "uint256",
          "name": "",
          "type": "uint256"
        }
      ],
      "stateMutability": "view",
      "type": "function"
    },
    {
      "inputs": [
        {
          "internalType": "uint256",
          "name": "",
          "type": "uint256"
        }
      ],
      "name": "poolInfo",
      "outputs": [
        {
          "internalType": "contract IERC20",
          "name": "token",
          "type": "address"
        },
        {
          "internalType": "uint256",
          "name": "allocPoint",
          "type": "uint256"
        },
        {
          "internalType": "uint256",
          "name": "lastRewardTime",
          "type": "uint256"
        },
        {
          "internalType": "uint256",
          "name": "accTombPerShare",
          "type": "uint256"
        },
        {
          "internalType": "bool",
          "name": "isStarted",
          "type": "bool"
        },
        {
          "internalType": "uint256",
          "name": "fee",
          "type": "uint256"
        }
      ],
      "stateMutability": "view",
      "type": "function"
    },
    {
      "inputs": [],
      "name": "poolStartTime",
      "outputs": [
        {
          "internalType": "uint256",
          "name": "",
          "type": "uint256"
        }
      ],
      "stateMutability": "view",
      "type": "function"
    },
    {
      "inputs": [],
      "name": "runningTime",
      "outputs": [
        {
          "internalType": "uint256",
          "name": "",
          "type": "uint256"
        }
      ],
      "stateMutability": "view",
      "type": "function"
    },
    {
      "inputs": [
        {
          "internalType": "uint256",
          "name": "_pid",
          "type": "uint256"
        },
        {
          "internalType": "uint256",
          "name": "_allocPoint",
          "type": "uint256"
        }
      ],
      "name": "set",
      "outputs": [],
      "stateMutability": "nonpayable",
      "type": "function"
    },
    {
      "inputs": [
        {
          "internalType": "address",
          "name": "_operator",
          "type": "address"
        }
      ],
      "name": "setOperator",
      "outputs": [],
      "stateMutability": "nonpayable",
      "type": "function"
    },
    {
      "inputs": [],
      "name": "tomb",
      "outputs": [
        {
          "internalType": "contract IERC20",
          "name": "",
          "type": "address"
        }
      ],
      "stateMutability": "view",
      "type": "function"
    },
    {
      "inputs": [],
      "name": "tombPerSecond",
      "outputs": [
        {
          "internalType": "uint256",
          "name": "",
          "type": "uint256"
        }
      ],
      "stateMutability": "view",
      "type": "function"
    },
    {
      "inputs": [],
      "name": "totalAllocPoint",
      "outputs": [
        {
          "internalType": "uint256",
          "name": "",
          "type": "uint256"
        }
      ],
      "stateMutability": "view",
      "type": "function"
    },
    {
      "inputs": [
        {
          "internalType": "uint256",
          "name": "_pid",
          "type": "uint256"
        }
      ],
      "name": "updatePool",
      "outputs": [],
      "stateMutability": "nonpayable",
      "type": "function"
    },
    {
      "inputs": [
        {
          "internalType": "uint256",
          "name": "",
          "type": "uint256"
        },
        {
          "internalType": "address",
          "name": "",
          "type": "address"
        }
      ],
      "name": "userInfo",
      "outputs": [
        {
          "internalType": "uint256",
          "name": "amount",
          "type": "uint256"
        },
        {
          "internalType": "uint256",
          "name": "rewardDebt",
          "type": "uint256"
        }
      ],
      "stateMutability": "view",
      "type": "function"
    },
    {
      "inputs": [
        {
          "internalType": "uint256",
          "name": "_pid",
          "type": "uint256"
        },
        {
          "internalType": "uint256",
          "name": "_amount",
          "type": "uint256"
        }
      ],
      "name": "withdraw",
      "outputs": [],
      "stateMutability": "nonpayable",
      "type": "function"
    }
  ],
  "bytecode": "0x60806040526000600455670201b8ef128580006007556202a30060085534801561002857600080fd5b506040516119503803806119508339818101604052604081101561004b57600080fd5b508051602090910151428111610091576040805162461bcd60e51b815260206004808301919091526024820152636c61746560e01b604482015290519081900360640190fd5b6001600160a01b038216156100bc57600180546001600160a01b0319166001600160a01b0384161790555b60058190556008540160065550600080546001600160a01b03191633179055611866806100ea6000396000f3fe608060405234801561001057600080fd5b50600436106101375760003560e01c80635f96dc11116100b857806393f1a40b1161007c57806393f1a40b1461033d578063943f013d14610382578063a2b123a81461038a578063b3ab15fb14610392578063c040f23a146103b8578063e2bbb158146103c057610137565b80635f96dc11146102b957806362e006c7146102c1578063630b5ba1146103015780636e271dd51461030957806389744bb41461031157610137565b8063441a3e70116100ff578063441a3e701461020257806351eb05a6146102255780635312ea8e1461024257806354575af41461025f578063570ca7351461029557610137565b806309cf60911461013c5780631526fe271461015657806317caf6f1146101b25780631ab06ee5146101ba578063231f0c6a146101df575b600080fd5b6101446103e3565b60408051918252519081900360200190f35b6101736004803603602081101561016c57600080fd5b50356103f1565b604080516001600160a01b03909716875260208701959095528585019390935260608501919091521515608084015260a0830152519081900360c00190f35b610144610444565b6101dd600480360360408110156101d057600080fd5b508035906020013561044a565b005b610144600480360360408110156101f557600080fd5b50803590602001356104f8565b6101dd6004803603604081101561021857600080fd5b50803590602001356105bd565b6101dd6004803603602081101561023b57600080fd5b503561077a565b6101dd6004803603602081101561025857600080fd5b50356108d8565b6101dd6004803603606081101561027557600080fd5b506001600160a01b03813581169160208101359160409091013516610974565b61029d610abc565b604080516001600160a01b039092168252519081900360200190f35b610144610acb565b6101dd600480360360a08110156102d757600080fd5b508035906001600160a01b0360208201351690604081013515159060608101359060800135610ad1565b6101dd610cfe565b610144610d21565b6101446004803603604081101561032757600080fd5b50803590602001356001600160a01b0316610d27565b6103696004803603604081101561035357600080fd5b50803590602001356001600160a01b0316610e83565b6040805192835260208301919091528051918290030190f35b610144610ea7565b610144610ead565b6101dd600480360360208110156103a857600080fd5b50356001600160a01b0316610eb3565b61029d610f1e565b6101dd600480360360408110156103d657600080fd5b5080359060200135610f2d565b69054b40b1f852bda0000081565b600281815481106103fe57fe5b60009182526020909120600690910201805460018201546002830154600384015460048501546005909501546001600160a01b0390941695509193909260ff9091169086565b60045481565b6000546001600160a01b031633146104935760405162461bcd60e51b815260040180806020018281038252602b815260200180611806602b913960400191505060405180910390fd5b61049b610cfe565b6000600283815481106104aa57fe5b60009182526020909120600690910201600481015490915060ff16156104f1576104ed826104e7836001015460045461115190919063ffffffff16565b906111ae565b6004555b6001015550565b6000818310610509575060006105b7565b6006548210610571576006548310610523575060006105b7565b60055483116105565761054f60075461054960055460065461115190919063ffffffff16565b9061120f565b90506105b7565b61054f6007546105498560065461115190919063ffffffff16565b6005548211610582575060006105b7565b60055483116105a65761054f6007546105496005548561115190919063ffffffff16565b60075461054f906105498486611151565b92915050565b60003390506000600284815481106105d157fe5b600091825260208083208784526003825260408085206001600160a01b0388168652909252922080546006909202909201925084111561064d576040805162461bcd60e51b81526020600482015260126024820152711dda5d1a191c985dce881b9bdd0819dbdbd960721b604482015290519081900360640190fd5b6106568561077a565b6000610693826001015461068d670de0b6b3a76400006106878760030154876000015461120f90919063ffffffff16565b90611268565b90611151565b905080156106e5576106a584826112cf565b6040805182815290516001600160a01b038616917fe2403640ba68fed3a2f88b7557551d1993f84b99bb10ff833f0cf8db0c5e0486919081900360200190a25b841561070f5781546106f79086611151565b8255825461070f906001600160a01b03168587611385565b6003830154825461072d91670de0b6b3a7640000916106879161120f565b600183015560408051868152905187916001600160a01b038716917ff279e6a1f5e320cca91135676d9cb6e44ca8a08c0b88342bcdb1144f6511b5689181900360200190a3505050505050565b60006002828154811061078957fe5b90600052602060002090600602019050806002015442116107aa57506108d5565b8054604080516370a0823160e01b815230600482015290516000926001600160a01b0316916370a08231916024808301926020929190829003018186803b1580156107f457600080fd5b505afa158015610808573d6000803e3d6000fd5b505050506040513d602081101561081e57600080fd5b50519050806108345750426002909101556108d5565b600482015460ff16610865576004808301805460ff191660019081179091558301549054610861916111ae565b6004555b600454156108cc57600061087d8360020154426104f8565b9050600061089e60045461068786600101548561120f90919063ffffffff16565b90506108c46108b98461068784670de0b6b3a764000061120f565b6003860154906111ae565b600385015550505b50426002909101555b50565b6000600282815481106108e757fe5b600091825260208083208584526003825260408085203380875293528420805485825560018201959095556006909302018054909450919291610937916001600160a01b03919091169083611385565b604080518281529051859133917fbb757047c2b5f3974fe26b7c10f732e7bce710b0952a71082702781e62ae05959181900360200190a350505050565b6000546001600160a01b031633146109bd5760405162461bcd60e51b815260040180806020018281038252602b815260200180611806602b913960400191505060405180910390fd5b6006546276a70001421015610aa3576001546001600160a01b0384811691161415610a18576040805162461bcd60e51b815260206004808301919091526024820152633a37b6b160e11b604482015290519081900360640190fd5b60025460005b81811015610aa057600060028281548110610a3557fe5b6000918252602090912060069091020180549091506001600160a01b0387811691161415610a97576040805162461bcd60e51b815260206004820152600a6024820152693837b7b6173a37b5b2b760b11b604482015290519081900360640190fd5b50600101610a1e565b50505b610ab76001600160a01b0384168284611385565b505050565b6000546001600160a01b031681565b60055481565b6000546001600160a01b03163314610b1a5760405162461bcd60e51b815260040180806020018281038252602b815260200180611806602b913960400191505060405180910390fd5b610b23846113d7565b8215610b3157610b31610cfe565b600554421015610b5f5781610b4a576005549150610b5a565b600554821015610b5a5760055491505b610b74565b811580610b6b57504282105b15610b74574291505b600060055483111580610b875750428311155b6040805160c0810182526001600160a01b038881168252602082018a8152928201878152600060608401818152861580156080870190815260a087018b815260028054600181018255955296517f405787fa12a823e0f2b7631cc41b3ba8828b3321ca811111fa75cd3aa3bb5ace600690950294850180546001600160a01b031916919097161790955595517f405787fa12a823e0f2b7631cc41b3ba8828b3321ca811111fa75cd3aa3bb5acf83015591517f405787fa12a823e0f2b7631cc41b3ba8828b3321ca811111fa75cd3aa3bb5ad082015590517f405787fa12a823e0f2b7631cc41b3ba8828b3321ca811111fa75cd3aa3bb5ad182015590517f405787fa12a823e0f2b7631cc41b3ba8828b3321ca811111fa75cd3aa3bb5ad28201805460ff191691151591909117905590517f405787fa12a823e0f2b7631cc41b3ba8828b3321ca811111fa75cd3aa3bb5ad390910155909150610cf657600454610cf290876111ae565b6004555b505050505050565b60025460005b81811015610d1d57610d158161077a565b600101610d04565b5050565b60065481565b60008060028481548110610d3757fe5b60009182526020808320878452600380835260408086206001600160a01b03808b168852908552818720600690960290930191820154825482516370a0823160e01b815230600482015292519398509596909590949316926370a0823192602480840193829003018186803b158015610daf57600080fd5b505afa158015610dc3573d6000803e3d6000fd5b505050506040513d6020811015610dd957600080fd5b5051600285015490915042118015610df057508015155b15610e4d576000610e058560020154426104f8565b90506000610e2660045461068788600101548561120f90919063ffffffff16565b9050610e48610e418461068784670de0b6b3a764000061120f565b85906111ae565b935050505b610e78836001015461068d670de0b6b3a764000061068786886000015461120f90919063ffffffff16565b979650505050505050565b60036020908152600092835260408084209091529082529020805460019091015482565b60085481565b60075481565b6000546001600160a01b03163314610efc5760405162461bcd60e51b815260040180806020018281038252602b815260200180611806602b913960400191505060405180910390fd5b600080546001600160a01b0319166001600160a01b0392909216919091179055565b6001546001600160a01b031681565b6000339050600060028481548110610f4157fe5b600091825260208083208784526003825260408085206001600160a01b0388168652909252922060069091029091019150610f7b8561077a565b805415611007576000610fb3826001015461068d670de0b6b3a76400006106878760030154876000015461120f90919063ffffffff16565b9050801561100557610fc584826112cf565b6040805182815290516001600160a01b038616917fe2403640ba68fed3a2f88b7557551d1993f84b99bb10ff833f0cf8db0c5e0486919081900360200190a25b505b83156110e757600061102c61271061068785600501548861120f90919063ffffffff16565b8354909150611046906001600160a01b0316853088611471565b80156110d5578254600080546040805163a9059cbb60e01b81526001600160a01b039283166004820152602481018690529051919093169263a9059cbb9260448083019360209390929083900390910190829087803b1580156110a857600080fd5b505af11580156110bc573d6000803e3d6000fd5b505050506040513d60208110156110d257600080fd5b50505b81546110e3908287036111ae565b8255505b6003820154815461110591670de0b6b3a7640000916106879161120f565b600182015560408051858152905186916001600160a01b038616917f90890809c654f11d6e72a28fa60149770a0d11ec6c92319d6ceb2bb0a4ea1a159181900360200190a35050505050565b6000828211156111a8576040805162461bcd60e51b815260206004820152601e60248201527f536166654d6174683a207375627472616374696f6e206f766572666c6f770000604482015290519081900360640190fd5b50900390565b600082820183811015611208576040805162461bcd60e51b815260206004820152601b60248201527f536166654d6174683a206164646974696f6e206f766572666c6f770000000000604482015290519081900360640190fd5b9392505050565b60008261121e575060006105b7565b8282028284828161122b57fe5b04146112085760405162461bcd60e51b81526004018080602001828103825260218152602001806117bb6021913960400191505060405180910390fd5b60008082116112be576040805162461bcd60e51b815260206004820152601a60248201527f536166654d6174683a206469766973696f6e206279207a65726f000000000000604482015290519081900360640190fd5b8183816112c757fe5b049392505050565b600154604080516370a0823160e01b815230600482015290516000926001600160a01b0316916370a08231916024808301926020929190829003018186803b15801561131a57600080fd5b505afa15801561132e573d6000803e3d6000fd5b505050506040513d602081101561134457600080fd5b505190508015610ab757808211156113725760015461136d906001600160a01b03168483611385565b610ab7565b600154610ab7906001600160a01b031684845b604080516001600160a01b038416602482015260448082018490528251808303909101815260649091019091526020810180516001600160e01b031663a9059cbb60e01b179052610ab79084906114d1565b60025460005b81811015610ab757826001600160a01b0316600282815481106113fc57fe5b60009182526020909120600690910201546001600160a01b03161415611469576040805162461bcd60e51b815260206004820152601f60248201527f546f6d6247656e65736973506f6f6c3a206578697374696e6720706f6f6c3f00604482015290519081900360640190fd5b6001016113dd565b604080516001600160a01b0380861660248301528416604482015260648082018490528251808303909101815260849091019091526020810180516001600160e01b03166323b872dd60e01b1790526114cb9085906114d1565b50505050565b6060611526826040518060400160405280602081526020017f5361666545524332303a206c6f772d6c6576656c2063616c6c206661696c6564815250856001600160a01b03166115829092919063ffffffff16565b805190915015610ab75780806020019051602081101561154557600080fd5b5051610ab75760405162461bcd60e51b815260040180806020018281038252602a8152602001806117dc602a913960400191505060405180910390fd5b60606115918484600085611599565b949350505050565b6060824710156115da5760405162461bcd60e51b81526004018080602001828103825260268152602001806117956026913960400191505060405180910390fd5b6115e3856116ea565b611634576040805162461bcd60e51b815260206004820152601d60248201527f416464726573733a2063616c6c20746f206e6f6e2d636f6e7472616374000000604482015290519081900360640190fd5b60006060866001600160a01b031685876040518082805190602001908083835b602083106116735780518252601f199092019160209182019101611654565b6001836020036101000a03801982511681845116808217855250505050505090500191505060006040518083038185875af1925050503d80600081146116d5576040519150601f19603f3d011682016040523d82523d6000602084013e6116da565b606091505b5091509150610e788282866116f0565b3b151590565b606083156116ff575081611208565b82511561170f5782518084602001fd5b8160405162461bcd60e51b81526004018080602001828103825283818151815260200191508051906020019080838360005b83811015611759578181015183820152602001611741565b50505050905090810190601f1680156117865780820380516001836020036101000a031916815260200191505b509250505060405180910390fdfe416464726573733a20696e73756666696369656e742062616c616e636520666f722063616c6c536166654d6174683a206d756c7469706c69636174696f6e206f766572666c6f775361666545524332303a204552433230206f7065726174696f6e20646964206e6f742073756363656564546f6d6247656e65736973506f6f6c3a2063616c6c6572206973206e6f7420746865206f70657261746f72a26469706673582212207a25bc2ee676757c0ebbf49d0bd5146f998dbb3f567184edc0b32c803cf8999a64736f6c634300060c0033",
  "linkReferences": {},
  "deployedLinkReferences": {}
}